:100000000C9442180C946A180C946A180C946A1890
:100010000C946A180C946A180C946A180C946A1858
:100020000C946A180C946A180C946A180C946A1848
:100030000C946A180C946A180C946A180C946A1838
:100040000C9414280C946A180C946A180C946A186E
:100050000C946A180C946A180C946A180C946A1818
:100060000C945E280C946A18FFFFFFFFFFFFFFFF50
:10007000FFFFFFFFFFFFFFFFFFFFFFFFFFFFFF830C
:10008000FFFFFFFFFFFFFFFFFFFFFFFFFFFFF03856
:1000900010FFFFFFFFFFFFFFFFFFFFFFFFFFE67DFA
:1000A000C67FFFFFFFFFFFFFFFFFFFFFFFFFCFFF49
:1000B000FF7FFFFFFFFFFFFFFFFFFFFFFFFFDFFFF0
:1000C000FF3FFFFFFFFFFFFFFFFFFFFFFFFFDFFF20
:1000D000FF3FFFFFFFFFFFFFFFFFFFFFFFFFCF7DA2
:1000E000EF7FFFFFFFFFFFFFFFFFFFFFFFFFE000CE
:1000F000C0FFFFFFFFFFFFFFFFFFFFFFFFFFE1C6A6
:1001000098FFFFFFFFFFFFFFFFFFFFFFFFFFE7FE7F
:100110009CFFFFFFFFFFFFFFFFFFFFFFFFFFE7FE6B
:100120009C0FFFFFFFFFFFFFFFFFFFFFFFFFE7FC4D
:10013000DCE7FFFFFFFFFFFFFFFFFFFFFFFFE00127
:10014000C0FBFFFFFFFFFFFFFFFFFFFFFFFFE0011F
:10015000C0FBFFFFFFFFFFFFFFFFFFFFFFFFE7FD0C
:10016000ECFBFFFFFFFFFFFFFFFFFFFFFFFFE7FDD0
:10017000CCFBFFFFFFFFFFFFFFFFFFFFFFFFE7FCE1
:100180001CF3FFFFFFFFFFFFFFFFFFFFFFFFE7FE87
:100190003CF3FFFFFFFFFFFFFFFFFFFFFFFFE7FF56
:1001A000FCF7FFFFFFFFFFFFFFFFFFFFFFFFE7FF82
:1001B000FCE7FFFFFFFFFFFFFFFFFFFFFFFFE7FF82
:1001C000FCEFFFFFFFFFFFFFFFFFFFFFFFFFE7FF6A
:1001D000FC8FFFFFFFFFFFFFFFFFFFFFFFFFE7FFBA
:1001E000FC3FFFFFFFFFFFFFFFFFFFFFFFFFE7FFFA
:1001F000FCFFFFFFFFFFFFFFFFFFFFFFFFFFE7FF2A
:10020000FCFFFFFFFFFFFFFFFFFFFFFFFFFFE7FF19
:10021000FCFFFFFFFFFFFFFFFFFFFFFFFFFFE7FF09
:10022000FCFFFFFFFFFFFFFFFFFFFFFFFFFFE7FFF9
:10023000FCFFFFFFFFFFFFFFFFFFFFFFFFFFF7FFD9
:10024000F9FFFFFFFFFFFFFFFFFFFFFFFFFFF800CA
:1002500003FFFFFFFFFFFFFFFFFFFFFFFFFFFFFFAA
:10026000FFFFFFFFFFFFFFFFFFFFFFFFFFFFFFFF9E
:10027000FFFFFFFFFFFFFFFFFFFFFFFFFFFFFF830A
:10028000FFFFFFFFFFFFFFFFFFFFFFFFFFFFF03854
:1002900010FFFFFFFFFFFFFFFFFFFFFFFFFFE67DF8
:1002A000C67FFFFFFFFFFFFFFFFFFFFFFFFFCFFF47
:1002B000FF7FFFFFFFFFFFFFFFFFFFFFFFFFDFFFEE
:1002C000FF3FFFFFFFFFFFFFFFFFFFFFFFFFDFFF1E
:1002D000FF3FFFFFFFFFFFFFFFFFFFFFFFFFCF7DA0
:1002E000EF7FFFFFFFFFFFFFFFFFFFFFFFFFE001CB
:1002F000C0FFFFFFFFFFFFFFFFFFFFFFFFFFE1C6A4
:1003000098FFFFFFFFFFFFFFFFFFFFFFFFFFE7FE7D
:100310009CFFFFFFFFFFFFFFFFFFFFFFFFFFE7FE69
:100320009C0FFFFFFFFFFFFFFFFFFFFFFFFFE7FC4B
:10033000DCE7FFFFFFFFFFFFFFFFFFFFFFFFE00125
:10034000C0FBFFFFFFFFFFFFFFFFFFFFFFFFE0011D
:10035000C0FBFFFFFFFFFFFFFFFFFFFFFFFFE7FD0A
:10036000CCFBFFFFFFFFFFFFFFFFFFFFFFFFE7FCEF
:100370009CFBFFFFFFFFFFFFFFFFFFFFFFFFE7FE0D
:100380003CF3FFFFFFFFFFFFFFFFFFFFFFFFE7FF64
:10039000FCF3FFFFFFFFFFFFFFFFFFFFFFFFE7FF94
:1003A000FCF7FFFFFFFFFFFFFFFFFFFFFFFFE7FF80
:1003B000FCE7FFFFFFFFFFFFFFFFFFFFFFFFE7FF80
:1003C000FCEFFFFFFFFFFFFFFFFFFFFFFFFFE7FF68
:1003D000FC8FFFFFFFFFFFFFFFFFFFFFFFFFE7FFB8
:1003E000FC3FFFFFFFFFFFFFFFFFFFFFFFFFE7FFF8
:1003F000FCFFFFFFFFFFFFFFFFFFFFFFFFFFE7FF28
:10040000FCFFFFFFFFFFFFFFFFFFFFFFFFFFE7FF17
:10041000FCFFFFFFFFFFFFFFFFFFFFFFFFFFE7FF07
:10042000FCFFFFFFFFFFFFFFFFFFFFFFFFFFE7FFF7
:10043000FCFFFFFFFFFFFFFFFFFFFFFFFFFFF7FFD7
:10044000F9FFFFFFFFFFFFFFFFFFFFFFFFFFF800C8
:1004500003FFFFFFFFFFFFFFFFFFFFFFFFFFFFFFA8
:10046000FFFFFFFFFFFFFFFFFFFFFFFFFFFFFFFF9C
:10047000FFFFFFFFFFFFFFFFFFFFFFFFFFFFFF8308
:10048000FFFFFFFFFFFFFFFFFFFFFFFFFFFFF03852
:1004900010FFFFFFFFFFFFFFFFFFFFFFFFFFE67DF6
:1004A000C67FFFFFFFFFFFFFFFFFFFFFFFFFCFFF45
:1004B000FF7FFFFFFFFFFFFFFFFFFFFFFFFFDFFFEC
:1004C000FF3FFFFFFFFFFFFFFFFFFFFFFFFFDFFF1C
:1004D000FF3FFFFFFFFFFFFFFFFFFFFFFFFFCF7D9E
:1004E000EF7FFFFFFFFFFFFFFFFFFFFFFFFFE001C9
:1004F000C0FFFFFFFFFFFFFFFFFFFFFFFFFFE1C6A2
:1005000098FFFFFFFFFFFFFFFFFFFFFFFFFFE7FE7B
:100510009CFFFFFFFFFFFFFFFFFFFFFFFFFFE7FC69
:10052000DC0FFFFFFFFFFFFFFFFFFFFFFFFFE7FD08
:10053000DCE7FFFFFFFFFFFFFFFFFFFFFFFFE00123
:10054000C0FBFFFFFFFFFFFFFFFFFFFFFFFFE0011B
:10055000C0FBFFFFFFFFFFFFFFFFFFFFFFFFE7FC09
:100560001CFBFFFFFFFFFFFFFFFFFFFFFFFFE7FF9A
:100570003CFBFFFFFFFFFFFFFFFFFFFFFFFFE7FF6A
:10058000FCF3FFFFFFFFFFFFFFFFFFFFFFFFE7FFA2
:10059000FCF3FFFFFFFFFFFFFFFFFFFFFFFFE7FF92
:1005A000FCF7FFFFFFFFFFFFFFFFFFFFFFFFE7FF7E
:1005B000FCE7FFFFFFFFFFFFFFFFFFFFFFFFE7FF7E
:1005C000FCEFFFFFFFFFFFFFFFFFFFFFFFFFE7FF66
:1005D000FC8FFFFFFFFFFFFFFFFFFFFFFFFFE7FFB6
:1005E000FC3FFFFFFFFFFFFFFFFFFFFFFFFFE7FFF6
:1005F000FCFFFFFFFFFFFFFFFFFFFFFFFFFFE7FF26
:10060000FCFFFFFFFFFFFFFFFFFFFFFFFFFFE7FF15
:10061000FCFFFFFFFFFFFFFFFFFFFFFFFFFFE7FF05
:10062000FCFFFFFFFFFFFFFFFFFFFFFFFFFFE7FFF5
:10063000FCFFFFFFFFFFFFFFFFFFFFFFFFFFF7FFD5
:10064000F9FFFFFFFFFFFFFFFFFFFFFFFFFFF800C6
:1006500003FFFFFFFFFFFFFFFFFFFFFFFFFFFFFFA6
:10066000FFFFFFFFFFFFFFFFFFFFFFFFFFFFFFFF9A
:10067000FFFFFFFFFFFFFFFFFFFFFFFFFFFFFF8306
:10068000FFFFFFFFFFFFFFFFFFFFFFFFFFFFF03850
:1006900010FFFFFFFFFFFFFFFFFFFFFFFFFFE67DF4
:1006A000C67FFFFFFFFFFFFFFFFFFFFFFFFFCFFF43
:1006B000FF7FFFFFFFFFFFFFFFFFFFFFFFFFDFFFEA
:1006C000FF3FFFFFFFFFFFFFFFFFFFFFFFFFDFFF1A
:1006D000FF3FFFFFFFFFFFFFFFFFFFFFFFFFCF7D9C
:1006E000EF7FFFFFFFFFFFFFFFFFFFFFFFFFE001C7
:1006F000C0FFFFFFFFFFFFFFFFFFFFFFFFFFE1C4A2
:10070000D8FFFFFFFFFFFFFFFFFFFFFFFFFFE7FC3B
:10071000DCFFFFFFFFFFFFFFFFFFFFFFFFFFE7FD26
:10072000DC0FFFFFFFFFFFFFFFFFFFFFFFFFE7FC07
:10073000DCE7FFFFFFFFFFFFFFFFFFFFFFFFE00022
:1007400000FBFFFFFFFFFFFFFFFFFFFFFFFFE000DA
:1007500000FBFFFFFFFFFFFFFFFFFFFFFFFFE7FFC4
:10076000FCFBFFFFFFFFFFFFFFFFFFFFFFFFE7FFB8
:10077000FCFBFFFFFFFFFFFFFFFFFFFFFFFFE7FFA8
:10078000FCF3FFFFFFFFFFFFFFFFFFFFFFFFE7FFA0
:10079000FCF3FFFFFFFFFFFFFFFFFFFFFFFFE7FF90
:1007A000FCF7FFFFFFFFFFFFFFFFFFFFFFFFE7FF7C
:1007B000FCE7FFFFFFFFFFFFFFFFFFFFFFFFE7FF7C
:1007C000FCEFFFFFFFFFFFFFFFFFFFFFFFFFE7FF64
:1007D000FC8FFFFFFFFFFFFFFFFFFFFFFFFFE7FFB4
:1007E000FC3FFFFFFFFFFFFFFFFFFFFFFFFFE7FFF4
:1007F000FCFFFFFFFFFFFFFFFFFFFFFFFFFFE7FF24
:10080000FCFFFFFFFFFFFFFFFFFFFFFFFFFFE7FF13
:10081000FCFFFFFFFFFFFFFFFFFFFFFFFFFFE7FF03
:10082000FCFFFFFFFFFFFFFFFFFFFFFFFFFFE7FFF3
:10083000FCFFFFFFFFFFFFFFFFFFFFFFFFFFF7FFD3
:10084000F9FFFFFFFFFFFFFFFFFFFFFFFFFFF800C4
:1008500003FFFFFFFFFFFFFFFFFFFFFFFFFFFFFFA4
:10086000FFFFFFFFFFFFFFFFFFFFFFFFFFFFFFFF98
:10087000FFFFFFFFFFFFFFFFFFFFFFFFFFFFFF8304
:10088000FFFFFFFFFFFFFFFFFFFFFFFFFFFFF0384E
:1008900010FFFFFFFFFFFFFFFFFFFFFFFFFFE67DF2
:1008A000C67FFFFFFFFFFFFFFFFFFFFFFFFFCFFF41
:1008B000FF7FFFFFFFFFFFFFFFFFFFFFFFFFDFFFE8
:1008C000FF3FFFFFFFFFFFFFFFFFFFFFFFFFDFFF18
:1008D000FF3FFFFFFFFFFFFFFFFFFFFFFFFFCF7D9A
:1008E000EF7FFFFFFFFFFFFFFFFFFFFFFFFFE000C6
:1008F00000FFFFFFFFFFFFFFFFFFFFFFFFFFE1C65E
:1009000038FFFFFFFFFFFFFFFFFFFFFFFFFFE7FFD6
:10091000FCFFFFFFFFFFFFFFFFFFFFFFFFFFE7FF02
:10092000FC0FFFFFFFFFFFFFFFFFFFFFFFFFE7FFE2
:10093000FCE7FFFFFFFFFFFFFFFFFFFFFFFFE00000
:1009400000FBFFFFFFFFFFFFFFFFFFFFFFFFE000D8
:1009500000FBFFFFFFFFFFFFFFFFFFFFFFFFE7FFC2
:10096000FCFBFFFFFFFFFFFFFFFFFFFFFFFFE7FFB6
:10097000FCFBFFFFFFFFFFFFFFFFFFFFFFFFE7FFA6
:10098000FCF3FFFFFFFFFFFFFFFFFFFFFFFFE7FF9E
:10099000FCF3FFFFFFFFFFFFFFFFFFFFFFFFE7FF8E
:1009A000FCF7FFFFFFFFFFFFFFFFFFFFFFFFE7FF7A
:1009B000FCE7FFFFFFFFFFFFFFFFFFFFFFFFE7FF7A
:1009C000FCEFFFFFFFFFFFFFFFFFFFFFFFFFE7FF62
:1009D000FC8FFFFFFFFFFFFFFFFFFFFFFFFFE7FFB2
:1009E000FC3FFFFFFFFFFFFFFFFFFFFFFFFFE7FFF2
:1009F000FCFFFFFFFFFFFFFFFFFFFFFFFFFFE7FF22
:100A0000FCFFFFFFFFFFFFFFFFFFFFFFFFFFE7FF11
:100A1000FCFFFFFFFFFFFFFFFFFFFFFFFFFFE7FF01
:100A2000FCFFFFFFFFFFFFFFFFFFFFFFFFFFE7FFF1
:100A3000FCFFFFFFFFFFFFFFFFFFFFFFFFFFF7FFD1
:100A4000F9FFFFFFFFFFFFFFFFFFFFFFFFFFF800C2
:100A500003FFFFFFFFFFFFFFFFFFFFFFFFFFFFFFA2
:100A6000FFFFFFFFFFFFFFFFFFFFFFFFFFFFFFFF96
:100A7000FFFFFFFFFFFFFFFFFFFFFFFFFFFFFF8302
:100A8000FFFFFFFFFFFFFFFFFFFFFFFFFFFFF0384C
:100A900010FFFFFFFFFFFFFFFFFFFFFFFFFFE67DF0
:100AA000C67FFFFFFFFFFFFFFFFFFFFFFFFFCFFF3F
:100AB000FF7FFFFFFFFFFFFFFFFFFFFFFFFFDFFFE6
:100AC000FF3FFFFFFFFFFFFFFFFFFFFFFFFFDFFF16
:100AD000FF3FFFFFFFFFFFFFFFFFFFFFFFFFCF799C
:100AE000EF7FFFFFFFFFFFFFFFFFFFFFFFFFE000C4
:100AF00000FFFFFFFFFFFFFFFFFFFFFFFFFFE1C75B
:100B000038FFFFFFFFFFFFFFFFFFFFFFFFFFE7FFD4
:100B1000FCFFFFFFFFFFFFFFFFFFFFFFFFFFE7FF00
:100B2000FC0FFFFFFFFFFFFFFFFFFFFFFFFFE7FFE0
:100B3000FCE7FFFFFFFFFFFFFFFFFFFFFFFFE000FE
:100B400000FBFFFFFFFFFFFFFFFFFFFFFFFFE000D6
:100B500000FBFFFFFFFFFFFFFFFFFFFFFFFFE7FFC0
:100B6000FCFBFFFFFFFFFFFFFFFFFFFFFFFFE7FFB4
:100B7000FCFBFFFFFFFFFFFFFFFFFFFFFFFFE7FFA4
:100B8000FCF3FFFFFFFFFFFFFFFFFFFFFFFFE7FF9C
:100B9000FCF3FFFFFFFFFFFFFFFFFFFFFFFFE7FF8C
:100BA000FCF7FFFFFFFFFFFFFFFFFFFFFFFFE7FF78
:100BB000FCE7FFFFFFFFFFFFFFFFFFFFFFFFE7FF78
:100BC000FCEFFFFFFFFFFFFFFFFFFFFFFFFFE7FF60
:100BD000FC8FFFFFFFFFFFFFFFFFFFFFFFFFE7FFB0
:100BE000FC3FFFFFFFFFFFFFFFFFFFFFFFFFE7FFF0
:100BF000FCFFFFFFFFFFFFFFFFFFFFFFFFFFE7FF20
:100C0000FCFFFFFFFFFFFFFFFFFFFFFFFFFFE7FF0F
:100C1000FCFFFFFFFFFFFFFFFFFFFFFFFFFFE7FFFF
:100C2000FCFFFFFFFFFFFFFFFFFFFFFFFFFFE7FFEF
:100C3000FCFFFFFFFFFFFFFFFFFFFFFFFFFFF7FFCF
:100C400079FFFFFFFFFFFFFFFFFFFFFFFFFFF80040
:100C500003FFFFFFFFFFFFFFFFFFFFFFFFFFFFFEA1
:100C60001FFFFFFFFFFFFFFFFFFFFFFFFFFFFFFF74
:100C7000FFFFFFFFFFFFFFFFFFFFFFFFFFFFFF8300
:100C8000FFFFFFFFFFFFFFFFFFFFFFFFFFFFF0384A
:100C900010FFFFFFFFFFFFFFFFFFFFFFFFFFE67DEE
:100CA000C67FFFFFFFFFFFFFFFFFFFFFFFFFCFFF3D
:100CB000FF7FFFFFFFFFFFFFFFFFFFFFFFFFDFFFE4
:100CC000FF3FFFFFFFFFFFFFFFFFFFFFFFFFDFFF14
:100CD000FF3FFFFFFFFFFFFFFFFFFFFFFFFFCF799A
:100CE000EF7FFFFFFFFFFFFFFFFFFFFFFFFFE000C2
:100CF00000FFFFFFFFFFFFFFFFFFFFFFFFFFE1C759
:100D000038FFFFFFFFFFFFFFFFFFFFFFFFFFE7FFD2
:100D1000FCFFFFFFFFFFFFFFFFFFFFFFFFFFE7FFFE
:100D2000FC0FFFFFFFFFFFFFFFFFFFFFFFFFE7FFDE
:100D3000FCE7FFFFFFFFFFFFFFFFFFFFFFFFE000FC
:100D400000FBFFFFFFFFFFFFFFFFFFFFFFFFE000D4
:100D500000FBFFFFFFFFFFFFFFFFFFFFFFFFE7FFBE
:100D6000FCFBFFFFFFFFFFFFFFFFFFFFFFFFE7FFB2
:100D7000FCFBFFFFFFFFFFFFFFFFFFFFFFFFE7FFA2
:100D8000FCF3FFFFFFFFFFFFFFFFFFFFFFFFE7FF9A
:100D9000FCF3FFFFFFFFFFFFFFFFFFFFFFFFE7FF8A
:100DA000FCF7FFFFFFFFFFFFFFFFFFFFFFFFE7FF76
:100DB000FCE7FFFFFFFFFFFFFFFFFFFFFFFFE7FF76
:100DC000FCEFFFFFFFFFFFFFFFFFFFFFFFFFE7FF5E
:100DD000FC8FFFFFFFFFFFFFFFFFFFFFFFFFE7FFAE
:100DE000FC3FFFFFFFFFFFFFFFFFFFFFFFFFE7FFEE
:100DF000FCFFFFFFFFFFFFFFFFFFFFFFFFFFE7FF1E
:100E00007CFFFFFFFFFFFFFFFFFFFFFFFFFFE7FE8E
:100E10003CFFFFFFFFFFFFFFFFFFFFFFFFFFE7FEBE
:100E20003CFFFFFFFFFFFFFFFFFFFFFFFFFFE7FCB0
:100E30009CFFFFFFFFFFFFFFFFFFFFFFFFFFF7FD2F
:100E4000D9FFFFFFFFFFFFFFFFFFFFFFFFFFF801DD
:100E5000C3FFFFFFFFFFFFFFFFFFFFFFFFFFFFF9E4
:100E6000EFFFFFFFFFFFFFFFFFFFFFFFFFFFFFFFA2
:100E7000FFFFFFFFFFFFFFFFFFFFFFFFFFFFFF83FE
:100E8000FFFFFFFFFFFFFFFFFFFFFFFFFFFFF03848
:100E900010FFFFFFFFFFFFFFFFFFFFFFFFFFE67DEC
:100EA000C67FFFFFFFFFFFFFFFFFFFFFFFFFCFFF3B
:100EB000FF7FFFFFFFFFFFFFFFFFFFFFFFFFDFFFE2
:100EC000FF3FFFFFFFFFFFFFFFFFFFFFFFFFDFFF12
:100ED000FF3FFFFFFFFFFFFFFFFFFFFFFFFFCF7998
:100EE000EF7FFFFFFFFFFFFFFFFFFFFFFFFFE000C0
:100EF00000FFFFFFFFFFFFFFFFFFFFFFFFFFE1C757
:100F000038FFFFFFFFFFFFFFFFFFFFFFFFFFE7FFD0
:100F1000FCFFFFFFFFFFFFFFFFFFFFFFFFFFE7FFFC
:100F2000FC0FFFFFFFFFFFFFFFFFFFFFFFFFE7FFDC
:100F3000FCE7FFFFFFFFFFFFFFFFFFFFFFFFE000FA
:100F400000FBFFFFFFFFFFFFFFFFFFFFFFFFE000D2
:100F500000FBFFFFFFFFFFFFFFFFFFFFFFFFE7FFBC
:100F6000FCFBFFFFFFFFFFFFFFFFFFFFFFFFE7FFB0
:100F7000FCFBFFFFFFFFFFFFFFFFFFFFFFFFE7FFA0
:100F8000FCF3FFFFFFFFFFFFFFFFFFFFFFFFE7FF98
:100F9000FCF3FFFFFFFFFFFFFFFFFFFFFFFFE7FF88
:100FA000FCF7FFFFFFFFFFFFFFFFFFFFFFFFE7FF74
:100FB000FCE7FFFFFFFFFFFFFFFFFFFFFFFFE7FF74
:100FC0003CEFFFFFFFFFFFFFFFFFFFFFFFFFE7FE1D
:100FD0003C8FFFFFFFFFFFFFFFFFFFFFFFFFE7FE6D
:100FE0009C3FFFFFFFFFFFFFFFFFFFFFFFFFE7FC4F
:100FF0009CFFFFFFFFFFFFFFFFFFFFFFFFFFE7FD7E
:10100000DCFFFFFFFFFFFFFFFFFFFFFFFFFFE7FD2D
:10101000CCFFFFFFFFFFFFFFFFFFFFFFFFFFE7F931
:10102000ECFFFFFFFFFFFFFFFFFFFFFFFFFFE7F901
:10103000ECFFFFFFFFFFFFFFFFFFFFFFFFFFF7FCDE
:10104000D9FFFFFFFFFFFFFFFFFFFFFFFFFFF800DC
:1010500003FFFFFFFFFFFFFFFFFFFFFFFFFFFFFF9C
:10106000FFFFFFFFFFFFFFFFFFFFFFFFFFFFFFFF90
:10107000FFFFFFFFFFFFFFFFFFFFFFFFFFFFFF83FC
:10108000FFFFFFFFFFFFFFFFFFFFFFFFFFFFF03846
:1010900010FFFFFFFFFFFFFFFFFFFFFFFFFFE67DEA
:1010A000C67FFFFFFFFFFFFFFFFFFFFFFFFFCFFF39
:1010B000FF7FFFFFFFFFFFFFFFFFFFFFFFFFDFFFE0
:1010C000FF3FFFFFFFFFFFFFFFFFFFFFFFFFDFFF10
:1010D000FF3FFFFFFFFFFFFFFFFFFFFFFFFFCF7996
:1010E000EF7FFFFFFFFFFFFFFFFFFFFFFFFFE000BE
:1010F00000FFFFFFFFFFFFFFFFFFFFFFFFFFE1C755
:1011000038FFFFFFFFFFFFFFFFFFFFFFFFFFE7FFCE
:10111000FCFFFFFFFFFFFFFFFFFFFFFFFFFFE7FFFA
:10112000FC0FFFFFFFFFFFFFFFFFFFFFFFFFE7FFDA
:10113000FCE7FFFFFFFFFFFFFFFFFFFFFFFFE000F8
:1011400000FBFFFFFFFFFFFFFFFFFFFFFFFFE000D0
:1011500000FBFFFFFFFFFFFFFFFFFFFFFFFFE7FFBA
:10116000FCFBFFFFFFFFFFFFFFFFFFFFFFFFE7FFAE
:10117000FCFBFFFFFFFFFFFFFFFFFFFFFFFFE7FF9E
:101180007CF3FFFFFFFFFFFFFFFFFFFFFFFFE7FE17
:101190003CF3FFFFFFFFFFFFFFFFFFFFFFFFE7FE47
:1011A0003CF7FFFFFFFFFFFFFFFFFFFFFFFFE7FE33
:1011B0009CE7FFFFFFFFFFFFFFFFFFFFFFFFE7FDD4
:1011C000DCEFFFFFFFFFFFFFFFFFFFFFFFFFE7FD7C
:1011D000DC8FFFFFFFFFFFFFFFFFFFFFFFFFE7FDCC
:1011E000CC3FFFFFFFFFFFFFFFFFFFFFFFFFE7F920
:1011F000ECFFFFFFFFFFFFFFFFFFFFFFFFFFE7FD2C
:10120000CCFFFFFFFFFFFFFFFFFFFFFFFFFFE7FC3C
:101210001CFFFFFFFFFFFFFFFFFFFFFFFFFFE7FEDA
:101220003CFFFFFFFFFFFFFFFFFFFFFFFFFFE7FFA9
:10123000FCFFFFFFFFFFFFFFFFFFFFFFFFFFF7FFC9
:10124000F9FFFFFFFFFFFFFFFFFFFFFFFFFFF800BA
:1012500003FFFFFFFFFFFFFFFFFFFFFFFFFFFFFF9A
:10126000FFFFFFFFFFFFFFFFFFFFFFFFFFFFFFFF8E
:10127000FFFFFFFFFFFFFFFFFFFFFFFFFFFFFF83FA
:10128000FFFFFFFFFFFFFFFFFFFFFFFFFFFFF03844
:1012900010FFFFFFFFFFFFFFFFFFFFFFFFFFE67DE8
:1012A000C67FFFFFFFFFFFFFFFFFFFFFFFFFCFFF37
:1012B000FF7FFFFFFFFFFFFFFFFFFFFFFFFFDFFFDE
:1012C000FF3FFFFFFFFFFFFFFFFFFFFFFFFFDFFF0E
:1012D000FF3FFFFFFFFFFFFFFFFFFFFFFFFFCF7994
:1012E000EF7FFFFFFFFFFFFFFFFFFFFFFFFFE000BC
:1012F00000FFFFFFFFFFFFFFFFFFFFFFFFFFE1C753
:1013000038FFFFFFFFFFFFFFFFFFFFFFFFFFE7FFCC
:10131000FCFFFFFFFFFFFFFFFFFFFFFFFFFFE7FFF8
:10132000FC0FFFFFFFFFFFFFFFFFFFFFFFFFE7FFD8
:10133000FCE7FFFFFFFFFFFFFFFFFFFFFFFFE000F6
:1013400000FBFFFFFFFFFFFFFFFFFFFFFFFFE000CE
:1013500000FBFFFFFFFFFFFFFFFFFFFFFFFFE7FEB9
:101360003CFBFFFFFFFFFFFFFFFFFFFFFFFFE7FE6D
:101370009CFBFFFFFFFFFFFFFFFFFFFFFFFFE7FCFF
:101380009CF3FFFFFFFFFFFFFFFFFFFFFFFFE7FDF6
:10139000DCF3FFFFFFFFFFFFFFFFFFFFFFFFE7FDA6
:1013A000DCF7FFFFFFFFFFFFFFFFFFFFFFFFE7FD92
:1013B000CCE7FFFFFFFFFFFFFFFFFFFFFFFFE7F9A6
:1013C000ECEFFFFFFFFFFFFFFFFFFFFFFFFFE7F96E
:1013D000CC8FFFFFFFFFFFFFFFFFFFFFFFFFE7FDDA
:1013E000DC3FFFFFFFFFFFFFFFFFFFFFFFFFE7FE09
:1013F0001CFFFFFFFFFFFFFFFFFFFFFFFFFFE7FFF8
:10140000FCFFFFFFFFFFFFFFFFFFFFFFFFFFE7FF07
:10141000FCFFFFFFFFFFFFFFFFFFFFFFFFFFE7FFF7
:10142000FCFFFFFFFFFFFFFFFFFFFFFFFFFFE7FFE7
:10143000FCFFFFFFFFFFFFFFFFFFFFFFFFFFF7FFC7
:10144000F9FFFFFFFFFFFFFFFFFFFFFFFFFFF800B8
:1014500003FFFFFFFFFFFFFFFFFFFFFFFFFFFFFF98
:10146000FFFFFFFFFFFFFFFFFFFFFFFFFFFFFFFF8C
:10147000FFFFFFFFFFFFFFFFFFFFFFFFFFFFFF83F8
:10148000FFFFFFFFFFFFFFFFFFFFFFFFFFFFF03842
:1014900010FFFFFFFFFFFFFFFFFFFFFFFFFFE67DE6
:1014A000C67FFFFFFFFFFFFFFFFFFFFFFFFFCFFF35
:1014B000FF7FFFFFFFFFFFFFFFFFFFFFFFFFDFFFDC
:1014C000FF3FFFFFFFFFFFFFFFFFFFFFFFFFDFFF0C
:1014D000FF3FFFFFFFFFFFFFFFFFFFFFFFFFCF7992
:1014E000EF7FFFFFFFFFFFFFFFFFFFFFFFFFE000BA
:1014F00000FFFFFFFFFFFFFFFFFFFFFFFFFFE1C751
:1015000038FFFFFFFFFFFFFFFFFFFFFFFFFFE7FFCA
:10151000FCFFFFFFFFFFFFFFFFFFFFFFFFFFE7FFF6
:101520007C0FFFFFFFFFFFFFFFFFFFFFFFFFE7FF56
:101530003CE7FFFFFFFFFFFFFFFFFFFFFFFFE000B4
:1015400000FBFFFFFFFFFFFFFFFFFFFFFFFFE000CC
:1015500080FBFFFFFFFFFFFFFFFFFFFFFFFFE7FC39
:10156000DCFBFFFFFFFFFFFFFFFFFFFFFFFFE7FDCC
:10157000DCFBFFFFFFFFFFFFFFFFFFFFFFFFE7FDBC
:10158000DCF3FFFFFFFFFFFFFFFFFFFFFFFFE7FDB4
:10159000CCF3FFFFFFFFFFFFFFFFFFFFFFFFE7F9B8
:1015A000ECF7FFFFFFFFFFFFFFFFFFFFFFFFE7F984
:1015B000ECE7FFFFFFFFFFFFFFFFFFFFFFFFE7FD80
:1015C000CCEFFFFFFFFFFFFFFFFFFFFFFFFFE7FC89
:1015D0001C8FFFFFFFFFFFFFFFFFFFFFFFFFE7FF86
:1015E0003C3FFFFFFFFFFFFFFFFFFFFFFFFFE7FFA6
:1015F000FCFFFFFFFFFFFFFFFFFFFFFFFFFFE7FF16
:10160000FCFFFFFFFFFFFFFFFFFFFFFFFFFFE7FF05
:10161000FCFFFFFFFFFFFFFFFFFFFFFFFFFFE7FFF5
:10162000FCFFFFFFFFFFFFFFFFFFFFFFFFFFE7FFE5
:10163000FCFFFFFFFFFFFFFFFFFFFFFFFFFFF7FFC5
:10164000F9FFFFFFFFFFFFFFFFFFFFFFFFFFF800B6
:1016500003FFFFFFFFFFFFFFFFFFFFFFFFFFFFFF96
:10166000FFFFFFFFFFFFFFFFFFFFFFFFFFFFFFFF8A
:10167000FFFFFFFFFFFFFFFFFFFFFFFFFFFFFF83F6
:10168000FFFFFFFFFFFFFFFFFFFFFFFFFFFFF03840
:1016900010FFFFFFFFFFFFFFFFFFFFFFFFFFE67DE4
:1016A000C67FFFFFFFFFFFFFFFFFFFFFFFFFCFFF33
:1016B000FF7FFFFFFFFFFFFFFFFFFFFFFFFFDFFFDA
:1016C000FF3FFFFFFFFFFFFFFFFFFFFFFFFFDFFF0A
:1016D000FF3FFFFFFFFFFFFFFFFFFFFFFFFFCF7990
:1016E000EF7FFFFFFFFFFFFFFFFFFFFFFFFFE000B8
:1016F00000FFFFFFFFFFFFFFFFFFFFFFFFFFE1C74F
:1017000038FFFFFFFFFFFFFFFFFFFFFFFFFFE7FFC8
:101710007CFFFFFFFFFFFFFFFFFFFFFFFFFFE7FF74
:101720003C0FFFFFFFFFFFFFFFFFFFFFFFFFE7FE95
:101730003CE7FFFFFFFFFFFFFFFFFFFFFFFFE000B2
:1017400080FBFFFFFFFFFFFFFFFFFFFFFFFFE0004A
:1017500080FBFFFFFFFFFFFFFFFFFFFFFFFFE7FD36
:10176000DCFBFFFFFFFFFFFFFFFFFFFFFFFFE7FDCA
:10177000DCFBFFFFFFFFFFFFFFFFFFFFFFFFE7FDBA
:10178000CCF3FFFFFFFFFFFFFFFFFFFFFFFFE7F9C6
:10179000ECF3FFFFFFFFFFFFFFFFFFFFFFFFE7F996
:1017A000ECF7FFFFFFFFFFFFFFFFFFFFFFFFE7FD7E
:1017B000CCE7FFFFFFFFFFFFFFFFFFFFFFFFE7FC9F
:1017C0009CEFFFFFFFFFFFFFFFFFFFFFFFFFE7FEB5
:1017D0003C8FFFFFFFFFFFFFFFFFFFFFFFFFE7FF64
:1017E000FC3FFFFFFFFFFFFFFFFFFFFFFFFFE7FFE4
:1017F000FCFFFFFFFFFFFFFFFFFFFFFFFFFFE7FF14
:10180000FCFFFFFFFFFFFFFFFFFFFFFFFFFFE7FF03
:10181000FCFFFFFFFFFFFFFFFFFFFFFFFFFFE7FFF3
:10182000FCFFFFFFFFFFFFFFFFFFFFFFFFFFE7FFE3
:10183000FCFFFFFFFFFFFFFFFFFFFFFFFFFFF7FFC3
:10184000F9FFFFFFFFFFFFFFFFFFFFFFFFFFF800B4
:1018500003FFFFFFFFFFFFFFFFFFFFFFFFFFFFFF94
:10186000FFFFFFFFFFFFFFFFFFFFFFFFFFFFFFFF88
:10187000FFFFFFFFFFFFFFFFFFFFFFFFFFFFFF83F4
:10188000FFFFFFFFFFFFFFFFFFFFFFFFFFFFF0383E
:1018900010FFFFFFFFFFFFFFFFFFFFFFFFFFE67DE2
:1018A000C67FFFFFFFFFFFFFFFFFFFFFFFFFCFFF31
:1018B000FF7FFFFFFFFFFFFFFFFFFFFFFFFFDFFFD8
:1018C000FF3FFFFFFFFFFFFFFFFFFFFFFFFFDFFF08
:1018D000FF3FFFFFFFFFFFFFFFFFFFFFFFFFCF798E
:1018E000EF7FFFFFFFFFFFFFFFFFFFFFFFFFE000B6
:1018F00000FFFFFFFFFFFFFFFFFFFFFFFFFFE1C64E
:1019000038FFFFFFFFFFFFFFFFFFFFFFFFFFE7FEC7
:101910003CFFFFFFFFFFFFFFFFFFFFFFFFFFE7FEB3
:101920003C0FFFFFFFFFFFFFFFFFFFFFFFFFE7FE93
:10193000BCE7FFFFFFFFFFFFFFFFFFFFFFFFE00030
:1019400080FBFFFFFFFFFFFFFFFFFFFFFFFFE00048
:1019500080FBFFFFFFFFFFFFFFFFFFFFFFFFE7FD34
:10196000DCFBFFFFFFFFFFFFFFFFFFFFFFFFE7FDC8
:10197000DCFBFFFFFFFFFFFFFFFFFFFFFFFFE7FDB8
:10198000CCF3FFFFFFFFFFFFFFFFFFFFFFFFE7F9C4
:10199000ECF3FFFFFFFFFFFFFFFFFFFFFFFFE7F994
:1019A000ECF7FFFFFFFFFFFFFFFFFFFFFFFFE7FD7C
:1019B000CCE7FFFFFFFFFFFFFFFFFFFFFFFFE7FC9D
:1019C0001CEFFFFFFFFFFFFFFFFFFFFFFFFFE7FF32
:1019D0003C8FFFFFFFFFFFFFFFFFFFFFFFFFE7FF62
:1019E000FC3FFFFFFFFFFFFFFFFFFFFFFFFFE7FFE2
:1019F000FCFFFFFFFFFFFFFFFFFFFFFFFFFFE7FF12
:101A0000FCFFFFFFFFFFFFFFFFFFFFFFFFFFE7FF01
:101A1000FCFFFFFFFFFFFFFFFFFFFFFFFFFFE7FFF1
:101A2000FCFFFFFFFFFFFFFFFFFFFFFFFFFFE7FFE1
:101A3000FCFFFFFFFFFFFFFFFFFFFFFFFFFFF7FFC1
:101A4000F9FFFFFFFFFFFFFFFFFFFFFFFFFFF800B2
:101A500003FFFFFFFFFFFFFFFFFFFFFFFFFFFFFF92
:101A6000FFFFFFFFFFFFFFFFFFFFFFFFFFFFFFFF86
:101A7000FFFFFFFFFFFFFFFFFFFFFFFFFFFFFF83F2
:101A8000FFFFFFFFFFFFFFFFFFFFFFFFFFFFF0383C
:101A900010FFFFFFFFFFFFFFFFFFFFFFFFFFE67DE0
:101AA000C67FFFFFFFFFFFFFFFFFFFFFFFFFCFFF2F
:101AB000FF7FFFFFFFFFFFFFFFFFFFFFFFFFDFFFD6
:101AC000FF3FFFFFFFFFFFFFFFFFFFFFFFFFDFFF06
:101AD000FF3FFFFFFFFFFFFFFFFFFFFFFFFFCF798C
:101AE000EF7FFFFFFFFFFFFFFFFFFFFFFFFFE000B4
:101AF00000FFFFFFFFFFFFFFFFFFFFFFFFFFE1C64C
:101B000018FFFFFFFFFFFFFFFFFFFFFFFFFFE7FEE5
:101B10009CFFFFFFFFFFFFFFFFFFFFFFFFFFE7FE51
:101B2000BC0FFFFFFFFFFFFFFFFFFFFFFFFFE7FE11
:101B3000BCE7FFFFFFFFFFFFFFFFFFFFFFFFE0002E
:101B400080FBFFFFFFFFFFFFFFFFFFFFFFFFE00046
:101B500080FBFFFFFFFFFFFFFFFFFFFFFFFFE7FC33
:101B6000DCFBFFFFFFFFFFFFFFFFFFFFFFFFE7FDC6
:101B7000DCFBFFFFFFFFFFFFFFFFFFFFFFFFE7FDB6
:101B8000CCF3FFFFFFFFFFFFFFFFFFFFFFFFE7F9C2
:101B9000ECF3FFFFFFFFFFFFFFFFFFFFFFFFE7FD8E
:101BA000CCF7FFFFFFFFFFFFFFFFFFFFFFFFE7FC9B
:101BB000DCE7FFFFFFFFFFFFFFFFFFFFFFFFE7FE89
:101BC0001CEFFFFFFFFFFFFFFFFFFFFFFFFFE7FF30
:101BD000FC8FFFFFFFFFFFFFFFFFFFFFFFFFE7FFA0
:101BE000FC3FFFFFFFFFFFFFFFFFFFFFFFFFE7FFE0
:101BF000FCFFFFFFFFFFFFFFFFFFFFFFFFFFE7FF10
:101C0000FCFFFFFFFFFFFFFFFFFFFFFFFFFFE7FFFF
:101C1000FCFFFFFFFFFFFFFFFFFFFFFFFFFFE7FFEF
:101C2000FCFFFFFFFFFFFFFFFFFFFFFFFFFFE7FFDF
:101C3000FCFFFFFFFFFFFFFFFFFFFFFFFFFFF7FFBF
:101C4000F9FFFFFFFFFFFFFFFFFFFFFFFFFFF800B0
:101C500003FFFFFFFFFFFFFFFFFFFFFFFFFFFFFF90
:101C6000FFFFFFFFFFFFFFFFFFFFFFFFFFFFFFFF84
:101C7000FFFFFFFFFFFFFFFFFFFFFFFFFFFFFF83F0
:101C8000FFFFFFFFFFFFFFFFFFFFFFFFFFFFF0383A
:101C900010FFFFFFFFFFFFFFFFFFFFFFFFFFE67DDE
:101CA000C67FFFFFFFFFFFFFFFFFFFFFFFFFCFFF2D
:101CB000FF7FFFFFFFFFFFFFFFFFFFFFFFFFDFFFD4
:101CC000FF3FFFFFFFFFFFFFFFFFFFFFFFFFDFFF04
:101CD000FF3FFFFFFFFFFFFFFFFFFFFFFFFFCF798A
:101CE000EF7FFFFFFFFFFFFFFFFFFFFFFFFFE000B2
:101CF00000FFFFFFFFFFFFFFFFFFFFFFFFFFE1C44C
:101D000018FFFFFFFFFFFFFFFFFFFFFFFFFFE7FEE3
:101D10009CFFFFFFFFFFFFFFFFFFFFFFFFFFE7FE4F
:101D20003C0FFFFFFFFFFFFFFFFFFFFFFFFFE7FE8F
:101D30003CE7FFFFFFFFFFFFFFFFFFFFFFFFE000AC
:101D400000FBFFFFFFFFFFFFFFFFFFFFFFFFE000C4
:101D500080FBFFFFFFFFFFFFFFFFFFFFFFFFE7FC31
:101D60009CFBFFFFFFFFFFFFFFFFFFFFFFFFE7FD04
:101D7000DCFBFFFFFFFFFFFFFFFFFFFFFFFFE7FDB4
:101D8000CCF3FFFFFFFFFFFFFFFFFFFFFFFFE7F9C0
:101D9000ECF3FFFFFFFFFFFFFFFFFFFFFFFFE7FD8C
:101DA000CCF7FFFFFFFFFFFFFFFFFFFFFFFFE7FC99
:101DB0001CE7FFFFFFFFFFFFFFFFFFFFFFFFE7FE47
:101DC0003CEFFFFFFFFFFFFFFFFFFFFFFFFFE7FF0E
:101DD000FC8FFFFFFFFFFFFFFFFFFFFFFFFFE7FF9E
:101DE000FC3FFFFFFFFFFFFFFFFFFFFFFFFFE7FFDE
:101DF000FCFFFFFFFFFFFFFFFFFFFFFFFFFFE7FF0E
:101E0000FCFFFFFFFFFFFFFFFFFFFFFFFFFFE7FFFD
:101E1000FCFFFFFFFFFFFFFFFFFFFFFFFFFFE7FFED
:101E2000FCFFFFFFFFFFFFFFFFFFFFFFFFFFE7FFDD
:101E3000FCFFFFFFFFFFFFFFFFFFFFFFFFFFF7FFBD
:101E4000F9FFFFFFFFFFFFFFFFFFFFFFFFFFF800AE
:101E500003FFFFFFFFFFFFFFFFFFFFFFFFFFFFFF8E
:101E6000FFFFFFFFFFFFFFFFFFFFFFFFFFFFFFFF82
:101E7000FFFFFFFFFFFFFFFFFFFFFFFFFFFFFF83EE
:101E8000FFFFFFFFFFFFFFFFFFFFFFFFFFFFF03838
:101E900010FFFFFFFFFFFFFFFFFFFFFFFFFFE67DDC
:101EA000C67FFFFFFFFFFFFFFFFFFFFFFFFFCFFF2B
:101EB000FF7FFFFFFFFFFFFFFFFFFFFFFFFFDFFFD2
:101EC000FF3FFFFFFFFFFFFFFFFFFFFFFFFFDFFF02
:101ED000FF3FFFFFFFFFFFFFFFFFFFFFFFFFCF7D84
:101EE000EF7FFFFFFFFFFFFFFFFFFFFFFFFFE001AF
:101EF000C0FFFFFFFFFFFFFFFFFFFFFFFFFFE1C48A
:101F000098FFFFFFFFFFFFFFFFFFFFFFFFFFE7FE61
:101F10009CFFFFFFFFFFFFFFFFFFFFFFFFFFE7FE4D
:101F20003C0FFFFFFFFFFFFFFFFFFFFFFFFFE7FE8D
:101F3000BCE7FFFFFFFFFFFFFFFFFFFFFFFFE0002A
:101F400080FBFFFFFFFFFFFFFFFFFFFFFFFFE00042
:101F500080FBFFFFFFFFFFFFFFFFFFFFFFFFE7FD2E
:101F6000DCFBFFFFFFFFFFFFFFFFFFFFFFFFE7FDC2
:101F7000CCFBFFFFFFFFFFFFFFFFFFFFFFFFE7F9C6
:101F8000ECF3FFFFFFFFFFFFFFFFFFFFFFFFE7FD9A
:101F9000CCF3FFFFFFFFFFFFFFFFFFFFFFFFE7FCAB
:101FA0009CF7FFFFFFFFFFFFFFFFFFFFFFFFE7FEC5
:101FB0003CE7FFFFFFFFFFFFFFFFFFFFFFFFE7FF24
:101FC000FCEFFFFFFFFFFFFFFFFFFFFFFFFFE7FF4C
:101FD000FC8FFFFFFFFFFFFFFFFFFFFFFFFFE7FF9C
:101FE000FC3FFFFFFFFFFFFFFFFFFFFFFFFFE7FFDC
:101FF000FCFFFFFFFFFFFFFFFFFFFFFFFFFFE7FF0C
:10200000FCFFFFFFFFFFFFFFFFFFFFFFFFFFE7FFFB
:10201000FCFFFFFFFFFFFFFFFFFFFFFFFFFFE7FFEB
:10202000FCFFFFFFFFFFFFFFFFFFFFFFFFFFE7FFDB
:10203000FCFFFFFFFFFFFFFFFFFFFFFFFFFFF7FFBB
:10204000F9FFFFFFFFFFFFFFFFFFFFFFFFFFF800AC
:1020500003FFFFFFFFFFFFFFFFFFFFFFFFFFFFFF8C
:10206000FFFFFFFFFFFFFFFFFFFFFFFFFFFFFFFF80
:10207000FFFFFFFFFFFFFFFFFFFFFFFFFFFFFF83EC
:10208000FFFFFFFFFFFFFFFFFFFFFFFFFFFFF03836
:1020900010FFFFFFFFFFFFFFFFFFFFFFFFFFE67DDA
:1020A000C67FFFFFFFFFFFFFFFFFFFFFFFFFCFFF29
:1020B000FF7FFFFFFFFFFFFFFFFFFFFFFFFFDFFFD0
:1020C000FF3FFFFFFFFFFFFFFFFFFFFFFFFFDFFF00
:1020D000FF3FFFFFFFFFFFFFFFFFFFFFFFFFCF7D82
:1020E000EF7FFFFFFFFFFFFFFFFFFFFFFFFFE001AD
:1020F000C0FFFFFFFFFFFFFFFFFFFFFFFFFFE1C488
:1021000098FFFFFFFFFFFFFFFFFFFFFFFFFFE7FE5F
:102110009CFFFFFFFFFFFFFFFFFFFFFFFFFFE7FE4B
:10212000BC0FFFFFFFFFFFFFFFFFFFFFFFFFE7FE0B
:102130009CE7FFFFFFFFFFFFFFFFFFFFFFFFE00048
:1021400080FBFFFFFFFFFFFFFFFFFFFFFFFFE00040
:10215000C0FBFFFFFFFFFFFFFFFFFFFFFFFFE7FDEC
:10216000CCFBFFFFFFFFFFFFFFFFFFFFFFFFE7F9D4
:10217000ECFBFFFFFFFFFFFFFFFFFFFFFFFFE7F9A4
:10218000ECF3FFFFFFFFFFFFFFFFFFFFFFFFE7FD98
:10219000DCF3FFFFFFFFFFFFFFFFFFFFFFFFE7FE97
:1021A0001CF7FFFFFFFFFFFFFFFFFFFFFFFFE7FF42
:1021B000FCE7FFFFFFFFFFFFFFFFFFFFFFFFE7FF62
:1021C000FCEFFFFFFFFFFFFFFFFFFFFFFFFFE7FF4A
:1021D000FC8FFFFFFFFFFFFFFFFFFFFFFFFFE7FF9A
:1021E000FC3FFFFFFFFFFFFFFFFFFFFFFFFFE7FFDA
:1021F000FCFFFFFFFFFFFFFFFFFFFFFFFFFFE7FF0A
:10220000FCFFFFFFFFFFFFFFFFFFFFFFFFFFE7FFF9
:10221000FCFFFFFFFFFFFFFFFFFFFFFFFFFFE7FFE9
:10222000FCFFFFFFFFFFFFFFFFFFFFFFFFFFE7FFD9
:10223000FCFFFFFFFFFFFFFFFFFFFFFFFFFFF7FFB9
:10224000F9FFFFFFFFFFFFFFFFFFFFFFFFFFF800AA
:1022500003FFFFFFFFFFFFFFFFFFFFFFFFFFFFFF8A
:10226000FFFFFFFFFFFFFFFFFFFFFFFFFFFFFFFF7E
:10227000FFFFFFFFFFFFFFFFFFFFFFFFFFFFFF83EA
:10228000FFFFFFFFFFFFFFFFFFFFFFFFFFFFF03834
:1022900010FFFFFFFFFFFFFFFFFFFFFFFFFFE67DD8
:1022A000C67FFFFFFFFFFFFFFFFFFFFFFFFFCFFF27
:1022B000FF7FFFFFFFFFFFFFFFFFFFFFFFFFDFFFCE
:1022C000FF3FFFFFFFFFFFFFFFFFFFFFFFFFDFFFFE
:1022D000FF3FFFFFFFFFFFFFFFFFFFFFFFFFCF7D80
:1022E000EF7FFFFFFFFFFFFFFFFFFFFFFFFFE001AB
:1022F000C0FFFFFFFFFFFFFFFFFFFFFFFFFFE1C684
:1023000098FFFFFFFFFFFFFFFFFFFFFFFFFFE7FE5D
:102310009CFFFFFFFFFFFFFFFFFFFFFFFFFFE7FE49
:102320009C0FFFFFFFFFFFFFFFFFFFFFFFFFE7FE29
:102330009CE7FFFFFFFFFFFFFFFFFFFFFFFFE00046
:10234000C0FBFFFFFFFFFFFFFFFFFFFFFFFFE001FD
:10235000C0FBFFFFFFFFFFFFFFFFFFFFFFFFE7FDEA
:10236000CCFBFFFFFFFFFFFFFFFFFFFFFFFFE7F9D2
:10237000ECFBFFFFFFFFFFFFFFFFFFFFFFFFE7FD9E
:10238000CCF3FFFFFFFFFFFFFFFFFFFFFFFFE7FCB7
:102390001CF3FFFFFFFFFFFFFFFFFFFFFFFFE7FE55
:1023A0003CF7FFFFFFFFFFFFFFFFFFFFFFFFE7FF20
:1023B000FCE7FFFFFFFFFFFFFFFFFFFFFFFFE7FF60
:1023C000FCEFFFFFFFFFFFFFFFFFFFFFFFFFE7FF48
:1023D000FC8FFFFFFFFFFFFFFFFFFFFFFFFFE7FF98
:1023E000FC3FFFFFFFFFFFFFFFFFFFFFFFFFE7FFD8
:1023F000FCFFFFFFFFFFFFFFFFFFFFFFFFFFE7FF08
:10240000FCFFFFFFFFFFFFFFFFFFFFFFFFFFE7FFF7
:10241000FCFFFFFFFFFFFFFFFFFFFFFFFFFFE7FFE7
:10242000FCFFFFFFFFFFFFFFFFFFFFFFFFFFE7FFD7
:10243000FCFFFFFFFFFFFFFFFFFFFFFFFFFFF7FFB7
:10244000F9FFFFFFFFFFFFFFFFFFFFFFFFFFF800A8
:1024500003FFFFFFFFFFFFFFFFFFFFFFFFFFFFFF88
:10246000FFFFFFFFFFFFFFFFFFFFFFFFFFFFFFFF7C
:10247000FFFFFFFFFFFFFFFFFFFFFFFFFFFFFF83E8
:10248000FFFFFFFFFFFFFFFFFFFFFFFFFFFFF03832
:1024900010FFFFFFFFFFFFFFFFFFFFFFFFFFE67DD6
:1024A000C67FFFFFFFFFFFFFFFFFFFFFFFFFCFFF25
:1024B000FF7FFFFFFFFFFFFFFFFFFFFFFFFFDFFFCC
:1024C000FF3FFFFFFFFFFFFFFFFFFFFFFFFFDFFFFC
:1024D000FF3FFFFFFFFFFFFFFFFFFFFFFFFFCF7D7E
:1024E000EF7FFFFFFFFFFFFFFFFFFFFFFFFFE001A9
:1024F000C0FFFFFFFFFFFFFFFFFFFFFFFFFFE1C682
:1025000098FFFFFFFFFFFFFFFFFFFFFFFFFFE7FE5B
:102510009CFFFFFFFFFFFFFFFFFFFFFFFFFFE7FE47
:102520009C0FFFFFFFFFFFFFFFFFFFFFFFFFE7FE27
:102530009CE7FFFFFFFFFFFFFFFFFFFFFFFFE00044
:10254000C0FBFFFFFFFFFFFFFFFFFFFFFFFFE001FB
:10255000C0FBFFFFFFFFFFFFFFFFFFFFFFFFE7FDE8
:10256000CCFBFFFFFFFFFFFFFFFFFFFFFFFFE7F9D0
:10257000ECFBFFFFFFFFFFFFFFFFFFFFFFFFE7FD9C
:10258000CCF3FFFFFFFFFFFFFFFFFFFFFFFFE7FCB5
:102590001CF3FFFFFFFFFFFFFFFFFFFFFFFFE7FF52
:1025A000FCF7FFFFFFFFFFFFFFFFFFFFFFFFE7FF5E
:1025B000FCE7FFFFFFFFFFFFFFFFFFFFFFFFE7FF5E
:1025C000FCEFFFFFFFFFFFFFFFFFFFFFFFFFE7FF46
:1025D000FC8FFFFFFFFFFFFFFFFFFFFFFFFFE7FF96
:1025E000FC3FFFFFFFFFFFFFFFFFFFFFFFFFE7FFD6
:1025F000FCFFFFFFFFFFFFFFFFFFFFFFFFFFE7FF06
:10260000FCFFFFFFFFFFFFFFFFFFFFFFFFFFE7FFF5
:10261000FCFFFFFFFFFFFFFFFFFFFFFFFFFFE7FFE5
:10262000FCFFFFFFFFFFFFFFFFFFFFFFFFFFE7FFD5
:10263000FCFFFFFFFFFFFFFFFFFFFFFFFFFFF7FFB5
:10264000F9FFFFFFFFFFFFFFFFFFFFFFFFFFF800A6
:1026500003FFFFFFFFFFFFFFFFFFFFFFFFFFFFFF86
:10266000FFFFFFFFFFFFFFFF00000000003E5B4F8A
:102670005B3E3E6B4F6B3E1C3E7C3E1C183C7E3CE2
:10268000181C577D571C1C5E7F5E1C00183C1800F0
:10269000FFE7C3E7FF0018241800FFE7DBE7FF3080
:1026A000483A060E2629792926407F050507407FEE
:1026B00005253F5A3CE73C5A7F3E1C1C08081C1C61
:1026C0003E7F14227F22145F5F005F5F06097F0157
:1026D0007F006689956A606060606094A2FFA29442
:1026E00008047E040810207E201008082A1C080810
:1026F0001C2A08081E101010100C1E0C1E0C30385E
:102700003E3830060E3E0E06000000000000005F5E
:1027100000000007000700147F147F14242A7F2A7A
:10272000122313086462364956205000080703003C
:10273000001C2241000041221C002A1C7F1C2A0888
:10274000083E0808008070300008080808080000EB
:1027500060600020100804023E5149453E00427F5F
:10276000400072494949462141494D331814127FAE
:102770001027454545393C4A49493141211109074E
:102780003649494936464949291E000014000000CF
:1027900040340000000814224114141414140041A1
:1027A00022140802015909063E415D594E7C12115E
:1027B000127C7F494949363E414141227F41414196
:1027C0003E7F494949417F090909013E4141517311
:1027D0007F0808087F00417F41002040413F017F82
:1027E000081422417F404040407F021C027F7F044A
:1027F00008107F3E4141413E7F090909063E415193
:10280000215E7F09192946264949493203017F0182
:10281000033F4040403F1F2040201F3F4038403F83
:10282000631408146303047804036159494D430099
:102830007F4141410204081020004141417F0402D0
:102840000102044040404040000307080020545467
:1028500078407F2844443838444444283844442845
:102860007F385454541800087E090218A4A49C7898
:102870007F0804047800447D40002040403D007FF4
:102880001028440000417F40007C047804787C08D4
:102890000404783844444438FC18242418182424A8
:1028A00018FC7C08040408485454542404043F448D
:1028B000243C4040207C1C2040201C3C4030403CBC
:1028C00044281028444C9090907C4464544C44001C
:1028D0000836410000007700000041360800020180
:1028E0000204023C2623263C1EA1A161123A40406C
:1028F000207A3854545559215555794122545478E9
:1029000042215554784020545579400C1E52721281
:10291000395555555939545454593955545458000A
:1029200000457C410002457D420001457C407D120E
:1029300011127DF0282528F07C5455450020545470
:102940007C547C0A097F4932494949323A4444441B
:102950003A324A4848303A4141217A3A4240207856
:10296000009DA0A07D3D4242423D3D4040403D3C57
:1029700024FF2424487E4943662B2FFC2F2BFF097C
:1029800029F620C0887E0903205454794100004470
:102990007D413048484A32384040227A007A0A0A5B
:1029A000727D0D19317D2629292F282629292926CE
:1029B00030484D4020380808080808080808382F13
:1029C00010C8ACBA2F102834FA00007B000008149D
:1029D0002A142222142A14085500550055AA55AA73
:1029E00055AAFF55FF55FF000000FF00101010FF13
:1029F00000141414FF001010FF00FF1010F010F06E
:102A0000141414FC001414F700FF0000FF00FF145E
:102A100014F404FC141417101F10101F101F1414AA
:102A2000141F00101010F0000000001F10101010F4
:102A30001F10101010F010000000FF1010101010E8
:102A400010101010FF10000000FF140000FF00FF26
:102A500000001F10170000FC04F4141417101714C2
:102A600014F404F40000FF00F714141414141414E4
:102A7000F700F7141414171410101F101F14141457
:102A8000F4141010F010F000001F101F0000001FC1
:102A900014000000FC140000F010F01010FF10FFF4
:102AA000141414FF141010101F00000000F010FF89
:102AB000FFFFFFFFF0F0F0F0F0FFFFFF000000006D
:102AC00000FFFF0F0F0F0F0F3844443844FC4A4AF1
:102AD0004A347E02020606027E027E0263554941A6
:102AE000633844443C04407E201E2006027E0202DD
:102AF00099A5E7A5991C2A492A1C4C7201724C30F1
:102B00004A4D4D303048784830BC625A463D3E49C7
:102B10004949007E0101017E2A2A2A2A2A44445F6B
:102B2000444440514A444040444A51400000FF015F
:102B300003E080FF000008086B6B0836123624366D
:102B4000060F090F060000181800000010100030D2
:102B500040FF0101001F01011E00191D1712003C5A
:102B60003C3C3C0000000000000103070F1F3F7FBA
:102B70000080C0E0F0F8FCFE000000080002010048
:102B8000000304070000000000000000DB40A4A6D2
:102B90002EAF2000A1C8D300408DAED580A8000084
:102BA000600000000000000000000000000000E0E5
:102BB0000000000000000000000000000001E00034
:102BC00000000000000000000000000001F0000014
:102BD000000000000000000000000003F000000002
:102BE0000000000000000000000007F000000000EE
:102BF00000000000000000000007F80000000000D6
:102C000000000000000000000FF800000003C000FA
:102C10007E000001E0007F0FF800000003C000FE0E
:102C2000000001E000FFEFF800000003C000FE001C
:102C30000001E000FFFFF800000003C000F000000A
:102C4000000F007FFE7FC0000003C000F000000006
:102C50000F003FFE7FF83FF1FBCFFCFEF3BC3DEFE2
:102C6000E01FFE7FFF7FFBFFDFFEFEFFBC3DEFE0CE
:102C70001FC6FFFF7FFBFFDFFEFEFFBC3DEFE00F47
:102C8000E3C7FE787BC3DE1EF0FFBC3DEF0007FF0D
:102C900087FC787BC3DE1EF0F83C3DEF0001FFFFB0
:102CA000F0007BC3C01EF0F03C3DEF0001F37FE07D
:102CB0003FFBC3CFFEF0F03C3DEF0003E33F807FDE
:102CC000FBC3DFFEF0F03C3DEF0007E73C00787B04
:102CD000C3DE1EF0F03C3DEF0007FFBE00787BC373
:102CE000DE1EF0F03C3DEF0007FFFE00787BC3DE08
:102CF0001EF0F03C3DEF000FFFFE007FFBFFDFFE0C
:102D0000F0F03FFDEFE00FFFFF007FFBFFDFFEF085
:102D1000F03FFDEFE00FF9FF003E79F9CF9EF0F0B4
:102D20001F3DE7E01FF1FF00000000000000000071
:102D30000000001F80FF007FFFFFFFFFFFFFFFFF7E
:102D4000FFE01C007F007FFFFFFFFEB46D888D1841
:102D5000E000001F007FFFFFFFFE95AD7DB577E02F
:102D600000000F007FFFFFFFFEA5AD9D8D19E00065
:102D70000006007FFFFFFFFEB5ADEDB57EE0000071
:102D8000000000018000000000000000000003803F
:102D900000000000000000000007C000000000006C
:102DA0000000000007C00000000000000000000F4D
:102DB000C00000000000000000001FE00000000054
:102DC00000000000001FE000000000000000000004
:102DD0003FE00000000000000000003FF0000000A5
:102DE0000000000000007FF0000000000000001F55
:102DF000F87FF0000000000000003FFE7FF00000C0
:102E000000000000003FFF7FF00000000000000015
:102E10001FFFFBE0000000000000000FFFF9FFC0F3
:102E20000000000000000FFFF9FFF80000000000A4
:102E30000007FFF1FFFF00000000000003FC73FF2C
:102E4000FF80000000000001FE3FFFFF8000000047
:102E5000000000FF1E0FFF000000000000007FFECA
:102E60001FFC000000000000003FFFFFF800000012
:102E7000000000000FDFFFE0000000000000001F66
:102E800019FFC0000000000000003F3CFF000000F0
:102E900000000000007E7CF8000000000000000040
:102EA0007FFE7C0000000000000000FFFFFC00002F
:102EB000000000000000FFFFFE0000000000000016
:102EC00000FFFFFE0000000000000001FFEFFE0019
:102ED00000000000000001FFCFFE00000000000025
:102EE0000003FF07FE0000000000000003FC07FED7
:102EF0000000000000000003F003FE0000000000DE
:102F00000000018000FE0000000000000000000042
:102F10007E000000000000000000003E00000000F5
:102F20000000000000000C0000000000000780000E
:102F3000FC000003C0000000078001FC000003C08B
:102F4000000000078001FC000003C00000000780B3
:102F500001E00000001E000000078001E00000000A
:102F60001E007FE3F79FF9FDE7787BDFC0FFF7FFE7
:102F7000BFFDFDFF787BDFC0FFF7FFBFFDFDFF78E2
:102F80007BDFC0F0F787BC3DE1FF787BDE00F0F728
:102F900087BC3DE1F0787BDE0000F787803DE1E013
:102FA000787BDE007FF7879FFDE1E0787BDE00FF26
:102FB000F787BFFDE1E0787BDE00F0F787BC3DE1FD
:102FC000E0787BDE00F0F787BC3DE1E0787BDE0057
:102FD000F0F787BC3DE1E0787BDE00FFF7FFBFFD47
:102FE000E1E07FFBDFC0FFF7FFBFFDE1E07FFBDF3C
:102FF000C07CF3F39F3DE1E03E7BCFC000000000CA
:1030000000000000000000FFFFFFFFFFFFFFFFFFC9
:10301000FFC0FFFFFFFFFD68DB111A31C0FFFFFF9C
:10302000FFFD2B5AFB6AEFC0FFFFFFFFFD4B5B3B31
:103030001A33C0FFFFFFFFFD6B5BDB6AFDC00000C2
:103040000000250028002B000000000024002700BD
:103050002A0004040404040404040202020202021A
:10306000030303030303010204081020408001024C
:10307000040810200102040810202200FF21000093
:103080007D29C12D11241FBECFEFD8E0DEBFCDBFFB
:1030900022E0AAEBB1E001C01D92A83DB207E1F722
:1030A00011E0A0E0B1E0E8ECF0E602C005900D927E
:1030B000AA3BB107D9F718E1C1E4D8E104C02197D0
:1030C000FE010E94532EC034D107C9F70E94D829AF
:1030D0000C9457300C940000089590E0FC01EA59DC
:1030E000FF4C24918E5A9F4CFC018491882399F0C7
:1030F00090E0880F991FFC01E85BFF4CA591B4910B
:10310000FC01E25CFF4C859194918FB7F894EC91AF
:10311000E22BEC938FBF089508950895AF92BF926C
:10312000CF92DF92EF92FF920F931F93CF93DF9393
:103130006C017B018B01040F151FEB015E01AE18C2
:10314000BF08C017D10759F06991D601ED91FC91E4
:103150000190F081E02DC6010995892B79F7C50111
:10316000DF91CF911F910F91FF90EF90DF90CF9063
:10317000BF90AF90089590E0FC01E858F44D249181
:10318000FC01EA59FF4C3491FC01EE5AFF4CE491EA
:10319000EE23C9F0222339F0233001F1A8F42130C5
:1031A00019F1223029F1F0E0EE0FFF1FE25CFF4C35
:1031B000A591B4918FB7F894EC91611126C0309528
:1031C0003E233C938FBF08952730A9F02830C9F0E3
:1031D000243049F7809180008F7D03C0809180006A
:1031E0008F7780938000DFCF84B58F7784BDDBCF6E
:1031F00084B58F7DFBCF8091B0008F778093B00036
:10320000D2CF8091B0008F7DF9CF3E2BDACF3FB780
:10321000F89480916B0290916C02A0916D02B09134
:103220006E0226B5A89B05C02F3F19F00196A11D7F
:10323000B11D3FBFBA2FA92F982F8827BC01CD0100
:10324000620F711D811D911D42E0660F771F881F5F
:10325000991F4A95D1F708958F929F92AF92BF928E
:10326000CF92DF92EF92FF924B015C010E9407190F
:103270006B017C010E9407196C197D098E099F0959
:10328000683E734081059105A8F321E0821A9108F8
:10329000A108B10888EEC80E83E0D81EE11CF11C1D
:1032A00081149104A104B10429F7FF90EF90DF90FD
:1032B000CF90BF90AF909F908F900895EF92FF9224
:1032C0000F931F93CF93DF93EC01EC80FD806E157D
:1032D0007F050CF070C057FF04C0240F351F50E06D
:1032E00040E08E819F81FA01E20FF31F8E179F0746
:1032F0001CF49C01241B350B121613060CF05BC04A
:10330000922F842F8695869586958E9DD0018F9DD0
:10331000B00D11246A0F7B1FAF8DB8A1A60FB71F88
:10332000477049F188E0841B482F682F70E0FB014B
:10333000E059F44DE491281708F063C0621B71094D
:103340002FEF30E002C0359527956A95E2F7E2232A
:103350000130110539F0B0F10230110561F58C91A1
:10336000E82702C08C91E82BEC93941720F12C8174
:103370003D81A20FB31FE92FE41BE83078F0023043
:10338000110521F58E2F9C9190959C932C813D8168
:10339000A20FB31F88508830B0F7E770EE2359F0C2
:1033A000F0E0E859F44DE49101301105F9F010F125
:1033B0000230110519F1DF91CF911F910F91FF900C
:1033C000EF900895E0958C91E823CECF81E0011530
:1033D000110509F480E081959E2F8C932C813D810D
:1033E000A20FB31F98509830C0F7D7CF8C91E82B1D
:1033F000EC93E1CFE0958C91E823FACF8C91E8270C
:10340000F7CF0130110509F4ADCFE0F2023011051C
:1034100009F4A5CFAE0DBF1DAECF0F931F93CF9371
:10342000DF9377FF04C0260F371F70E060E0DC01F8
:103430001496CD91DC91FB01E20FF31FCE17DF074D
:103440001CF49E01261B370B121613064CF5FA01CD
:1034500057FD3796A3E0F595E795AA95E1F7EC9F20
:10346000D001ED9FB00DFC9FB00D11246A0F7B1FA2
:10347000DC015F96ED91FC91E60FF71F4770552731
:1034800081E090E001C0880F4A95EAF7482F0130AB
:10349000110559F0A8F02E0F3F1F02301105E1F081
:1034A000DF91CF911F910F9108952E0F3F1FE217CB
:1034B000F307B1F38191DF011197842B8C93F7CF40
:1034C00080952E0F3F1FE217F30751F39191DF0113
:1034D000119798239C93F7CFE217F30709F3819193
:1034E000DF01119784278C93F7CF0F931F93FA0175
:1034F000DC0156964C9156974230E9F04330A1F1E9
:10350000413061F514964D915C91DA01AE1BBF0B11
:10351000FD01E21BF30B77FD0BC0DC0116964D910C
:103520005C916417750724F4AB01BF010E940D1A6A
:103530001F910F91089514964D915C91DA01A61B8D
:10354000B70BBD0161507109DC0116964D915C917C
:10355000DA01AE1BBF0BFD01E21BF30B77FDE8CFD9
:10356000AF010E945E19E4CF16964D915C91DA018D
:10357000A61BB70BBD0161507109CDCF0F931F93EF
:10358000FA01DC0156964C9156974230A9F043302F
:1035900091F1413019F514964D915C91DA01AE1B11
:1035A000BF0BFD013197F7FD04C0AB01BF010E94C5
:1035B0005E191F910F91089514964D915C91DA0157
:1035C000A61BB70BBD01DC0116964D915C91DA018B
:1035D000AE1BBF0BFD013197621B730BF7FDE9CFEB
:1035E000DC0116964D915C91E417F50714F7AF01D5
:1035F0000E940D1ADECF16964D915C91DA01A61B42
:10360000B70BBD01621B730BCECFFC0177FD64C00D
:1036100080859185681779070CF05EC057FD5CC006
:1036200082859385481759070CF056C086898230E9
:10363000B1F0833029F1813041F484819581841B7C
:10364000950BAB01BC01615071092130310509F1C5
:1036500008F443C02230310509F463C00895848121
:103660009581DC01A61BB70BBD01615071098681F4
:103670009781DC01A41BB50BAD0141505109E5CF89
:1036800086819781861B970BBA01AC014150510985
:10369000DCCFCA0157FD0796A3E095958795AA95BB
:1036A000E1F7A481B5818A9F90018B9F300D9A9F8D
:1036B000300D1124620F731F078CF0A1E02DE60F6F
:1036C000F71F4770552721E030E001C0220F4A95CF
:1036D000EAF78081822B80830895CA0157FD0796FF
:1036E00033E0959587953A95E1F7A481B5818A9F56
:1036F00090018B9F300D9A9F300D1124620F731F24
:10370000078CF0A1E02DE60FF71F4770552781E0E9
:1037100090E001C0880F4A95EAF78095908189234F
:10372000DACFCA0157FD079623E0959587952A952C
:10373000E1F7A481B5818A9F90018B9F300D9A9FFC
:10374000300D1124620F731F078CF0A1E02DE60FDE
:10375000F71F4770552721E030E001C0220F4A953E
:10376000EAF780818227B7CF08958EBD00000DB49F
:1037700007FEFDCF8EB508958CBD9DBD08950895BB
:10378000FC016370668B848195812681378161306D
:1037900039F0633029F09187808733872287089535
:1037A000318720879387828708952F923F924F9287
:1037B0005F926F927F928F929F92AF92BF92CF92C1
:1037C000DF92EF92FF920F931F93CF93DF93CDB7CA
:1037D000DEB76A970FB6F894DEBF0FBECDBF9A8FE3
:1037E000898F7A8369834A01D22E18870F83370124
:1037F000BC2CDC0159962D913C915A97211531052D
:1038000009F015C118968D919C9119976817790741
:103810000CF0D7C11A968D919C91481759070CF05E
:10382000D0C14C2C512CB6E0CB9E600D711D1124E3
:103830007C876B87161617060CF0C3C1EA2DF0E0E3
:10384000FA87E98793E0EE0FFF1F9A95E1F7F88B6F
:10385000EF87CF01840F951F181619060CF0B1C120
:10386000A98DBA8D58968C91811104C0BFEABD15FF
:1038700008F4D394A98DBA8DED91FC91119702842F
:10388000F385E02DCD010995B5E0DB9EC001112443
:10389000E981FA81FC83EB83312C212C9C0128598E
:1038A000394D388F2F8B4A2D50E05E8B4D8BEF8931
:1038B000F88DE20DF31D44919E828D82D12CC12C96
:1038C00069817A81620D731D7A8B698B842F90E0F8
:1038D0009C8B8B8BE98DFA8DA081B18140FF82C0DA
:1038E000F1E0BF126FC0AF126DC01C96ED91FC915C
:1038F0002F813885A4014C0D5D1D69897A89898DD8
:103900009A8D0995EB89FC89F595E7954E2F5FEF28
:10391000C51AD50A6D817E818D899E89680F791FB0
:103920007E836D8398E0C916D10481F6AFEF2A1A21
:103930003A0AEB81FC81E40DF51DFC83EB83F5E095
:103940002F16310409F0B3CF2F813885261537059E
:10395000B9F0A98DBA8DED91FC91B1E0BB1257C0C1
:10396000AB1255C069817A816B5F7F4F0088F18906
:10397000E02D830128E030E0A401898D9A8D09951E
:10398000A98DBA8DED91FC9111970688F789E02DEC
:10399000CD016A960FB6F894DEBF0FBECDBFDF91A2
:1039A000CF911F910F91FF90EF90DF90CF90BF903C
:1039B000AF909F908F907F906F905F904F903F90CF
:1039C0002F9009941E96ED91FC91EF80F884098563
:1039D0001A8592014D815E816B817C81898D9A8DE2
:1039E000099590CF2F8138852615370509F48ACFA0
:1039F00031E0B31207C0A31205C01C96ED91FC91F3
:103A0000930178CF1E96ED91FC917301E0CF6B8509
:103A10007C85641975090684F785E02D73010F858F
:103A200018899201A401898D9A8D0995A9CFF90170
:103A300034969491329745915491D91AB7E0DB9E10
:103A4000400D511D1124F901259134913C8B2B8B94
:103A5000FA0125903490FA0132967490319634919F
:103A6000398B329664903196449041E04C1518F0B1
:103A70004A1508F07FC0662D062C000C770B7C835E
:103A80006B83842D042C000C990B9E838D83A98D50
:103A9000BA8DED91FC9111970284F385E02DCD0153
:103AA0000995512CD12CC12CEA2DF0E0FA87E98739
:103AB0002B2D30E03C872B87A401440D511D47FC82
:103AC0005A95588F4F8B69817A81660D711D67FCFD
:103AD0007A957E876D877989C71608F051CF2C2D8E
:103AE00030E04D815E81420F531FA985BA854A9F00
:103AF000C0014B9F900D5A9F900D1124FC01E80DC1
:103B0000F91DF88BEF87852D612C4F89588D420F59
:103B1000531F5E8B4D8B671408F050C044244394B0
:103B2000480E877041F4C1010196EB89FC89E20DD2
:103B3000F31DD4901C01D7FE19C0A98DBA8DED914B
:103B4000FC91662D70E0B1E0BB1219C0AB1217C03A
:103B50002D853E85620F731F0484F585E02D2F812E
:103B600038854D895E89898D9A8D0995DD0C639420
:103B7000842DD1CF1E821D821C821B8288CF4B8157
:103B80005C81640F751FAB85BC856A9FC0016B9F0C
:103B9000900D7A9F900D112469817A81680F791FA9
:103BA0000684F785E02DEF80F88409851A859D014C
:103BB0004F855889898D9A8D0995D8CF570CC39414
:103BC0008ACF6A960FB6F894DEBF0FBECDBFDF91E5
:103BD000CF911F910F91FF90EF90DF90CF90BF900A
:103BE000AF909F908F907F906F905F904F903F909D
:103BF0002F9008958F929F92AF92CF92EF92FF9263
:103C00000F931F93CF93DF93EC01262F898D9A8D0D
:103C1000009709F051C06A30D1F41D861C868D8949
:103C200048E0849F900111248E859F85820F931F09
:103C30009F878E8781E090E0DF91CF911F910F9158
:103C4000FF90EF90CF90AF909F908F9008956D3040
:103C500089F3CC88AD888F898823C1F08C859D85B8
:103C600036E0C39E800D911D112448855985481763
:103C7000590764F44E855F851D861C8638E0A39E37
:103C8000C0011124840F951F9F878E87EA88FB88C7
:103C9000088919894E855F856C857D85CE010E94D6
:103CA000D51B2C898C859D8546E0249F800D911D18
:103CB00011249D878C87BECF6A3069F41D861C86CF
:103CC000FC013896E4912D898E859F85E29F800DB9
:103CD000911D1124ADCF6D3009F4ACCFFC013496A9
:103CE0003491631708F4A6CF3296E491E61708F4EE
:103CF000A1CFFC01329685909490462F431B342F20
:103D000047E0349F800C911C1124F40132963491C9
:103D10003196E4913323A9F1EE2399F1CC88F40193
:103D20003596E491AD884F89442301F10E2E000CA5
:103D3000FF0BE30FF11DCE9EA001CF9E500D11246D
:103D40006C857D85460F571F6885798564177507D3
:103D50006CF44E855F851D861C86FC013896E491C7
:103D6000AE9E400D511D11245F874E87EA88FB8867
:103D7000088919894E855F856C857D85CE010E94F5
:103D8000D51BF4013496E4912C898C859D85E29FA6
:103D9000800D911D11248DCF6F927F928F929F92F3
:103DA000AF92BF92CF92DF92EF92FF920F931F9349
:103DB000CF93DF93EC016B015A0139014801E8818F
:103DC000F9810284F385E02D0995E881F981028863
:103DD000F389E02D87019301A501B601CE01099574
:103DE000A501480D591D41505109E881F98102880A
:103DF000F389E02D9301B601CE010995E881F9819F
:103E00000088F189E02D9401A501B601CE01099544
:103E1000C60CD71CB60161507109E881F981008890
:103E2000F189E02D9401A501CE010995E881F98180
:103E30000688F789E02DCE01DF91CF911F910F9178
:103E4000FF90EF90DF90CF90BF90AF909F908F90BA
:103E50007F906F9009946F927F928F929F92AF9212
:103E6000BF92CF92DF92EF92FF920F931F93CF9367
:103E7000DF935C01EB016A01490138018701DC0134
:103E8000ED91FC916217730719F5641675062CF015
:103E9000962D872D3A01C92ED82E9601261937095D
:103EA0002F5F3F4F048CF58DE02DA301BE01C501AE
:103EB0000995DF91CF911F910F91FF90EF90DF90C7
:103EC000CF90BF90AF909F908F907F906F9008950C
:103ED0004615570591F42617370724F0892D4B0115
:103EE000C22FD82F9E01281939092F5F3F4F068C0A
:103EF000F78DE02DA601B401DACF0284F385E02D21
:103F00000995D501ED91FC910488F589E02D830197
:103F10009401A601BE01C5010995D501ED91FC9161
:103F20000688F789E02DC501DF91CF911F910F9190
:103F3000FF90EF90DF90CF90BF90AF909F908F90C9
:103F40007F906F900994EF92FF920F931F93DC0183
:103F50001A960D911C911B9718962D913C911997CB
:103F6000ED91FC9100A0F1A1E02D7B0150E040E03B
:103F700070E060E009951F910F91FF90EF90089518
:103F80004F925F926F927F928F929F92AF92BF9269
:103F9000CF92DF92EF92FF920F931F93CF93DF9315
:103FA0006C012B015A0139014801DC01ED91FC91B2
:103FB0000284F385E02D0995E201640C751CD6019D
:103FC000ED91FC91C615D7055CF40088F189E02DD0
:103FD00087019401A501BE01C60109952196EFCF85
:103FE0000688F789E02DC601DF91CF911F910F91CF
:103FF000FF90EF90DF90CF90BF90AF909F908F9009
:104000007F906F905F904F9009948F929F92AF92A4
:10401000BF92CF92DF92EF92FF920F931F93CF93B5
:10402000DF93EC015B014A016901E881F9810284B7
:10403000F385E02D099595012C0D3D1D2150310989
:10404000E881F9810488F589E02D78018401A401D3
:10405000B501CE010995E881F9810688F789E02D3F
:10406000CE01DF91CF911F910F91FF90EF90DF90E4
:10407000CF90BF90AF909F908F9009948F929F9216
:10408000AF92BF92CF92DF92EF92FF920F931F9366
:10409000CF93DF93EC015B014A0169017801E8816C
:1040A000F9810284F385E02D0995C80CD91C86019D
:1040B00001501109E881F9810488F589E02D950105
:1040C000A401B501CE010995E881F9810688F78937
:1040D000E02DCE01DF91CF911F910F91FF90EF90D6
:1040E000DF90CF90BF90AF909F908F900994EF9208
:1040F000FF920F931F93DC01ED91FC9100A0F1A1C1
:10410000E02D09951F910F91FF90EF9008950F9367
:104110001F93DC01ED91FC91068CF78DE02D099544
:104120001F910F9108950F931F93DC01ED91FC9166
:10413000048CF58DE02D09951F910F910895DC01F8
:10414000ED91FC910084F185E02D09943F924F920E
:104150005F926F927F928F929F92AF92BF92CF9217
:10416000DF92EF92FF920F931F93CF93DF9300D0D4
:1041700000D0CDB7DEB75C013B016A0149012801DF
:1041800087E0480E511C93E0559447949A95E1F7C7
:10419000CA018E0D9F1D9A838983F12CE12C312C4D
:1041A0001C821B828B819C8187709927330C892B01
:1041B00061F4EB81FC8183E0F595E7958A95E1F761
:1041C000EE0DFF1DE80DF91D349037FE0AC021E009
:1041D00030E0A6016B817C81660D771DC5010E94D0
:1041E0009F208B819C8101969C838B8308171907E4
:1041F000C9F69FEFC91AD90AE40CF51C89819A8186
:10420000C816D90669F60F900F900F900F90DF91A6
:10421000CF911F910F91FF90EF90DF90CF90BF90C3
:10422000AF909F908F907F906F905F904F903F9056
:1042300008952F923F924F925F926F927F928F924A
:104240009F92AF92BF92CF92DF92EF92FF920F9325
:104250001F93CF93DF9300D000D000D0CDB7DEB74F
:104260003C016A013E832D83FC82EB825801A41A33
:10427000B50AB7FE03C0B194A194B1088D809E80A9
:10428000861A970A97FE03C09194819491088A1424
:104290009B045CF0902F812F0D811E819D838E8366
:1042A0009C2D8D2D6B01692F782F0C151D055CF051
:1042B0009D818E817E836D83692F782F902F812F32
:1042C0008601C92ED82E1601201A310A2B012D8104
:1042D0003E81421A530A57FE03C05194419451083B
:1042E000710137FE03C03FEFE31AF30AF594E79438
:1042F0008D819E81861797075CF5A1E0B0E0BA83B7
:10430000A983C016D1064CF1D301ED91FC91048430
:10431000F585E02D2B813C81A8016D817E818A1479
:104320009B041CF04D815E81B801C3010995E4181E
:10433000F508F7FE0AC02D813E8189819A81280FF8
:10434000391F3E832D83E20CF31C0F5F1F4FD9CF23
:104350002FEF3FEF3A832983D4CF26960FB6F894F8
:10436000DEBF0FBECDBFDF91CF911F910F91FF90A8
:10437000EF90DF90CF90BF90AF909F908F907F9005
:104380006F905F904F903F902F90089508952091E7
:104390002002260F3327331F21323105ECF4209100
:1043A0004402FC0190E080E0243069F082E008954E
:1043B000A09120022191AC0140505E4FA40FB52F77
:1043C000B11D2C930196861798F380912002680FF7
:1043D0006093200280E0089581E0089510924402E5
:1043E00081E0809346021092450261E082E10E94E2
:1043F000BB1861E083E10E94BB18E9EBF0E080812B
:104400008E7F808380818D7F808388E48093B80055
:1044100085E48093BC000895CF93DF9391E090935F
:10442000FF018823B9F0C091B800D091BA00809103
:10443000BC008A7B8093BC0060E082E10E94BB18D4
:1044400060E083E10E94BB180E94EE21D093BA0085
:10445000C093B800DF91CF910895E09175028091EB
:104460007402E81730F4F0E0E652FE4F808190E0ED
:1044700008958FEF9FEF08959091750280917402D7
:104480002FEF3FEF981748F4E92FF0E0E652FE4F88
:10449000208130E09F5F90937502C901089580915B
:1044A000740290917502891B990B0895CF92DF9247
:1044B000EF92FF920F931F93CF93DF937C01CB0179
:1044C0008A0120918702222389F0EB016B01C40E3F
:1044D000D51ECC15DD0569F06991D701ED91FC91F0
:1044E0000190F081E02DC7010995F3CF642F0E9460
:1044F000C721C801DF91CF911F910F91FF90EF90DD
:10450000DF90CF900895CF93DF931F92CDB7DEB7A2
:104510006983209187022223F9F0209184022032BE
:1045200058F021E030E0FC013383228390E080E00A
:104530000F90DF91CF91089580918502E82FF0E0F0
:10454000E654FE4F998190838F5F8093850280931C
:10455000840281E090E0ECCF61E0CE0101960E9400
:10456000C721F7CFCF92DF92EF92FF920F931F9365
:10457000CF93DF93D091840281E0D13208F09CC0C8
:10458000C09186020E9407196B017C018091440250
:1045900081116CC082E08093440281E080934602E6
:1045A0008FEF8093430210926802D0936702AAEBC8
:1045B000B1E0E7E4F2E080E0D8138DC01092690228
:1045C00080916902CC0FC82BC0936902809145028B
:1045D000813009F084C0109245020E9407196B01D6
:1045E0007C01809169028093BB008091FB019091D6
:1045F000FC01A091FD01B091FE01892B8A2B8B2B30
:10460000A1F00E9407190091FB011091FC0120917B
:10461000FD013091FE016C197D098E099F09061775
:1046200017072807390708F442C08091BC0083FDB2
:10463000D8CF85EC8093BC000E9407196B017C01E8
:1046400080914402823009F44CC0809143028F3F34
:1046500009F469C080914302803209F466C08091F8
:104660004302803309F463C084E026C08091FB01DB
:104670009091FC01A091FD01B091FE01892B8A2B44
:104680008B2B09F483CF0E9407190091FB01109135
:10469000FC012091FD013091FE016C197D098E090C
:1046A0009F09061717072807390708F06FCF809171
:1046B000FA010E940C2285E0109285021092840279
:1046C00010928702DF91CF911F910F91FF90EF9091
:1046D000DF90CF9008959D9191938F5F6DCF85EE80
:1046E000A9CF8091FB019091FC01A091FD01B091B7
:1046F000FE01892B8A2B8B2B09F4A2CF0E9407196C
:104700000091FB011091FC012091FD013091FE010F
:104710006C197D098E099F090617170728073907A5
:1047200008F08ECFC4CF80E0C7CF82E0C5CF83E052
:10473000C3CFEF92FF920F931F93CF93DF937C0130
:10474000C62F8091B1029091B202009709F459C02E
:104750002091B50231E030938702209386021092B7
:10476000850210928402DC01ED91FC910190F081B0
:10477000E02D60E009958701EE24E394F12CD1E06F
:10478000C1508091B1029091B202CF3F91F1B0E25D
:10479000EB16F104D8F00E94B2228091B102909100
:1047A000B2022091B502D093870220938602109224
:1047B000850210928402DC01ED91FC910190F08160
:1047C000E02D60E00995EE24E394F12C8091B10294
:1047D0009091B202F8016491DC01ED91FC9101909D
:1047E000F081E02D0995BFEFEB1AFB0A0F5F1F4F19
:1047F000C7CFDF91CF911F910F91FF90EF900C9455
:10480000B222E091C102F091C20290818091C70270
:104810008095892380838701C15008F438C0F8014E
:1048200084912091AF023091B002232B29F00E9495
:10483000B51B0F5F1F4FF0CF28E030E040E8E0915C
:10484000BD02F091BE029091C502582F5423D9F0B9
:104850005081952B9083E091BF02F091C00290812E
:104860005091C602952B9083E091BF02F091C00257
:1048700050819091C6029095952390834695215042
:104880003109E9F6D6CF508190959523E3CFDF919A
:10489000CF911F910F91FF90EF9008951F93CF93A9
:1048A000DF93EC018D8D9E8D009721F1162F29A1AC
:1048B00031E0309387022093860210928502109295
:1048C0008402DC01ED91FC910190F081E02D60E02B
:1048D00009958D8D9E8DDC01ED91FC910190F0810B
:1048E000E02D612F09958D8D9E8DDF91CF911F91C8
:1048F0000C94B222ADA5BEA59C918BA9809589236D
:104900008C938B8D9C8D892B31F0862FDF91CF91ED
:104910001F910C94B51B28E030E080E8A9A5BAA54A
:1049200099A9462F4823C1F04C91942B9C93ABA599
:10493000BCA59C914AA9942B9C93ABA5BCA54C917A
:104940009AA9909594239C9386952150310931F72B
:10495000DF91CF911F9108954C9190959423E6CFCC
:10496000DF92EF92FF920F931F93CF93DF9380918B
:10497000B1029091B202892B09F498C02091C9022A
:104980003091CA024091CB025091CC0260E074E2B7
:1049900084EF90E00E94312E2051310941095109E4
:1049A00056954795379527952093B80065E08AE797
:1049B00090E30E94992360919802615084E992E00B
:1049C0000E944E2420919A0230919B02C9010796C1
:1049D00097FD079633E0959587953A95E1F72091F5
:1049E000980230919902829F8001839F100D929FBF
:1049F000100D1124C091B302D091B4028091B10284
:104A00009091B2020C0F1D1F009709F48FC02091E6
:104A1000B50231E03093870220938602109285021E
:104A200010928402DC01ED91FC910190F081E02D67
:104A300060E40995EE24E394F12CDD24D394809175
:104A4000B1029091B2020C171D0709F446C0B0E202
:104A5000EB16F104D8F00E94B2228091B10290913D
:104A6000B2022091B502D092870220938602109262
:104A7000850210928402DC01ED91FC910190F0819D
:104A8000E02D60E40995EE24E394F12C8091B102CD
:104A90009091B2026991DC01ED91FC910190F0815D
:104AA000E02D0995BFEFEB1AFB0AC9CF8091AF0249
:104AB0009091B002892B31F08091D2029091D30273
:104AC0000E94BC1BE091C302F091C40290818091CE
:104AD000C80280958923808369CF0E94B222809189
:104AE000B1029091B202892B09F461C02091CD02EC
:104AF0003091CE024091CF025091D00260E074E23A
:104B000084EF90E00E94312E205131094109510972
:104B100056954795379527952093B800DF91CF910B
:104B20001F910F91FF90EF90DF900895E091C102E7
:104B3000F091C20280819091C702892B80830C176B
:104B40001D0769F289912091AF023091B002232BA9
:104B500019F00E94B51BF3CF28E030E040E8E09167
:104B6000BD02F091BE029091C502582F5423D9F096
:104B70005081952B9083E091BF02F091C00290810B
:104B80005091C602952B9083E091BF02F091C00234
:104B900050819091C602909595239083469521501F
:104BA0003109E9F6CCCF508190959523E3CFE09180
:104BB000C302F091C40280819091C802892B808346
:104BC000ADCF1F93CF93DF93EC01162F8D8D9E8D6C
:104BD000892BB1F12DA93EA94FA958AD60E074E22F
:104BE00084EF90E00E94312E205131094109510992
:104BF00056954795379527952093B80066EA111189
:104C000067EACE010E944E248D8D9E8D892B41F145
:104C100029AD3AAD4BAD5CAD60E074E284EF90E05D
:104C20000E94312E2051310941095109569547956D
:104C3000379527952093B800DF91CF911F91089564
:104C40008B8D9C8D892B21F08EAD9FAD0E94BC1B5E
:104C5000EFA5F8A990818CA9809589238083CECF78
:104C6000EFA5F8A980819CA9892B8083E5CF90E0EE
:104C700080E008952F923F924F925F926F927F92C1
:104C80008F929F92AF92BF92CF92DF92EF92FF925C
:104C90000F931F93CF93DF93CDB7DEB72D970FB64A
:104CA000F894DEBF0FBECDBFFC01E480F580D0805C
:104CB000D9827181E114F10409F4C9C00091AD02F7
:104CC0001091AE022091AB022D875091A802852F42
:104CD00090E098878F8396E0599F5001112420908F
:104CE0009C0230909D02D8011496BB83AA83C80110
:104CF00006969D838C831297BA87A9872801B8E00E
:104D00004B0E511C8D2C972E90E080E02FEF3FEF43
:104D1000AFEFBFE7BC87AB87F401D1904F01DD2037
:104D200009F48CC00115110509F463C0FAE0DF1223
:104D300005C0F201849190E080E0EECFFDE0DF1647
:104D400059F3EA81FB81C490EC81FD814491DC142C
:104D500018F34D1508F3E985FA85A591B491DC188F
:104D6000F7E0DF9EA00DB11D1124FD013296649085
:104D70003196E491FD013496D490DE8231967490A0
:104D80003196E4914D854423C1F0C62CD12CC70C3B
:104D9000D11C77FCDA94EF81F885CE9ED001CF9EAE
:104DA000B00DDE9EB00D1124A80FB91F2A163B06C8
:104DB00024F4F201849190E080E0472D4503F00156
:104DC0001124E80FF91FAB85BC85EA17FB0714F423
:104DD000FC87EB87659EE00DF11D112431972E179E
:104DE0003F070CF49F01BE81B59F800D911D1124DA
:104DF00093CFEAE0DE1609F49ECFFDE0DF1609F45A
:104E00008BCFDD84DD2041F0F501E80FF91F2E1670
:104E10003F0614F490E080E0F501E80FF91FDF0190
:104E200011972A173B070CF49D01AB85BC858A17A7
:104E30009B0714F49C878B87CF016ECF8B859C8555
:104E400028173907E4F1281B390B2F5F3F4F80E803
:104E500090E0821B930B969587959093A102809387
:104E6000A002A4E06A9FC00111249093A302809342
:104E7000A202A701698184E992E00E948E1842E0B3
:104E800050E06AE671E084E992E02D960FB6F8945E
:104E9000DEBF0FBECDBFDF91CF911F910F91FF906D
:104EA000EF90DF90CF90BF90AF909F908F907F90CA
:104EB0006F905F904F903F902F900C948E1830E041
:104EC00020E0C5CF20919A0230919B02C90107963C
:104ED00097FD079623E0959587952A95E1F7209110
:104EE000980230919902829FA001839F500D929F5A
:104EF000500D112470E060E08091B3029091B402F3
:104F00000C9449300E943B30FC01808191810097D4
:104F100011F00C94F52E0895EF92FF920F931F93CA
:104F2000CF93DF93EC017B018A01888199810097FF
:104F300029F02A813B812417350788F4B8016F5F77
:104F40007F4F0E947E2F009791F0998388831B8367
:104F50000A832C813D81232B11F4FC0110821D83D7
:104F60000C83B701888199810E9450300CC08881E0
:104F70009981009711F00E94F52E198218821D82E6
:104F80001C821B821A82CE01DF91CF911F910F915B
:104F9000FF90EF900895FC0111821082138212821B
:104FA00015821482FB0101900020E9F73197AF01CF
:104FB000461B570B0C948C2785ED8093BC00809189
:104FC000FB019091FC01A091FD01B091FE010796BB
:104FD000A11DB11D23E0B695A795979587952A95B4
:104FE000D1F72091BC0024FD03C010924402089523
:104FF0004091FB015091FC016091FD017091FE0117
:10500000452B462B472B69F30097A105B10541F0CD
:105010002AE22A95F1F700C00197A109B109E1CF71
:105020008091FA010C940C221F920F920FB60F92EE
:1050300011242F933F938F939F93AF93BF938091AE
:10504000760290917702A0917802B0917902309126
:105050006A0223E0230F2D3758F50196A11DB11DDB
:1050600020936A028093760290937702A09378024D
:10507000B093790280916B0290916C02A0916D02C5
:10508000B0916E020196A11DB11D80936B029093A9
:105090006C02A0936D02B0936E02BF91AF919F918D
:1050A0008F913F912F910F900FBE0F901F901895E9
:1050B00026E8230F0296A11DB11DD2CF1F920F9299
:1050C0000FB60F9211242F933F934F935F936F93DB
:1050D0007F938F939F93AF93BF93EF93FF938091B1
:1050E000B900887F803609F44AC0F0F5883209F4A7
:1050F000A7C018F5803109F49BC0B8F4882309F4DF
:10510000F9C0883009F494C0FF91EF91BF91AF913D
:105110009F918F917F916F915F914F913F912F91CF
:105120000F900FBE0F901F901895883109F488C01A
:10513000803251F78093430214C0803409F49DC03B
:1051400040F48033B9F38833F9F68093430285EC59
:10515000B0C0803509F485C0883509F496C088341C
:1051600099F60E94DC27D0CF883909F48CC038F535
:10517000883729F050F4883611F0803729F683E01B
:10518000809344021092420257C0883809F47BC0D1
:10519000803919F0803809F0B7CF8091420280320F
:1051A00008F071C0E091420281E08E0F80934202CC
:1051B0008091BB00F0E0EE5DFD4F80833DC0803B01
:1051C00039F0E0F4803A09F479C0883A09F09CCFCC
:1051D00084E0809344021092210210922002E09118
:1051E0007202F091730209958091200281110FC023
:1051F00081E0809320021092000209C0803C09F4F3
:10520000A6CF883C09F4A3CF883B09F07DCFE0917D
:10521000210281E08E0F80932102F0E0E050FE4FEA
:1052200080818093BB00909121028091200229C04F
:10523000809169028093BB0085EC8093BC0064CFB1
:105240009091680280916702981758F5E091680282
:1052500081E08E0F80936802F0E0E95BFD4F808172
:10526000E9CFE091680281E08E0F8093680280911F
:10527000BB00F0E0E95BFD4F808390916802809174
:1052800067029817C8F285E8D8CFE091680281E0FC
:105290008E0F809368028091BB00F0E0E95BFD4FC8
:1052A00080838091460281115CCF81E0809345022A
:1052B00084EA8093BC001092440226CF85EC809350
:1052C000BC001092440280914202803230F4E0919E
:1052D0004202F0E0EE5DFD4F10826091420270E00C
:1052E000E0917002F091710282E292E009951092D1
:1052F00042020ACF1092430234CFA8E8B2E01396DC
:105300001C921E92129748EE53E060E070E01496F3
:105310004D935D936D937C93179780E391E0119685
:105320009C938E93E4E9F2E01382128220E830E04D
:105330003583248380E290E09783868331872087BA
:1053400093878287168A158614861786168681E0CB
:10535000858B848B2FEF3FEF338B228B318B208B10
:10536000878B108E128E118E82E491E09183808360
:10537000148E138EB68FA58F10A2178E8FEF84A375
:1053800085A386A387A380A780E89AE1A6E0B0E082
:1053900085AB96ABA7ABB0AF80EA96E8A1E0B0E0F2
:1053A00081AF92AFA3AFB4AF80E586AF17AE0895DB
:1053B000CF93DF93CDB7DEB767970FB6F894DEBF14
:1053C0000FBECDBF789484B5826084BD84B5816002
:1053D00084BD85B5826085BD85B5816085BD8091C0
:1053E0006E00816080936E00109281008091810038
:1053F0008260809381008091810081608093810030
:10540000809180008160809380008091B1008460F1
:105410008093B1008091B00081608093B000809152
:105420007A00846080937A0080917A008260809311
:105430007A0080917A00816080937A0080917A006E
:10544000806880937A001092C1008091B30290919D
:10545000B402892B39F10E94622780919A029091BF
:105460009B026091980270919902813291050CF033
:10547000A0C0AC014052510957FF02C04F5F5F4FBF
:10548000559547956357710977FF02C06F5F7F4F4E
:1054900075956795F0E2EF2EF12C03E710E02EE909
:1054A0003BE29FC020919A0230919B02C90107966E
:1054B00097FD079623E0959587952A95E1F720912A
:1054C000980230919902AC01429FC001439F900D18
:1054D000529F900D11240E94592E9093B4028093F4
:1054E000B302892B09F0B7CF81E090E09093A70237
:1054F0008093A6029093A5028093A4020E94622743
:105500008FB7F894409076025090770260907802BE
:10551000709079028FBF61E084E992E00E94E125FA
:1055200053014201D12C80E090E0DC018418950801
:10553000A608B70850E285165EE49506A104B104FA
:1055400008F029C22FB7F8948090760290907702E5
:10555000A0907802B09079022FBFB501A401481B3A
:10556000590B6A0B7B0B4431510561057105F0F253
:105570000E94622782E18D1508F4D12CED2DF0E018
:10558000EE0FFF1FEA5FFE4F2081318140E2E42EE3
:10559000F12C00E810E050E040E070E060E084E9C9
:1055A00092E00E94A6200E94B024D394D501C401A9
:1055B000BDCFAC014054510957FF02C04F5F5F4F50
:1055C000559547956255710977FF02C06F5F7F4F10
:1055D0007595679510E4E12EF12C02E510E02EE7B9
:1055E0003DE284E992E00E94A62082E08093B60228
:1055F0008091B1029091B202892B09F4DEC08CE354
:105600008093B50210927502109274021092850276
:10561000109284020E94EE218CE898E1909373022C
:10562000809372028DE898E19093710280937002EA
:105630008091BC0287FD1DC00E946D1861E08091C1
:10564000BC020E94BB1861E070E080E090E00E9424
:105650002C1960E08091BC020E94BB186AE070E0E7
:1056600080E090E00E942C1961E08091BC020E94D1
:10567000BB188091B1029091B202892B09F454C1F8
:105680002091C9023091CA024091CB025091CC02C4
:1056900060E074E284EF90E00E94312E20513109E5
:1056A0004109510956954795379527952093B8009C
:1056B00064E08AE99BE20E94992360919A0261501A
:1056C00084E992E00E944E2464E086E99BE20E9415
:1056D00099238091B60264E1813009F460E184E9A4
:1056E00092E00E944E2464E082E99BE20E949923AA
:1056F0008FE88093D102809198029091990280382E
:10570000910509F02AC180919A0290919B02803400
:10571000910509F032C18091B602813009F41BC1B4
:105720008FEC8093D10212E16AED84E992E00E944D
:105730004E24612F84E992E00E944E2461E884E9BE
:1057400092E00E944E246091D10284E992E00E948E
:105750004E2469ED84E992E00E944E248091B602C5
:1057600061EF813009F462E284E992E00E944E2404
:1057700066E08CE89BE20E9499238091B1029091AF
:10578000B202892B09F4FDC02091CD023091CE02E6
:105790004091CF025091D00260E074E284EF90E03B
:1057A0000E94312E205131094109510956954795E2
:1057B000379527952093B80097CE8091BA020E9422
:1057C0006D188091BB020E946D188091BA02082E5C
:1057D000000C990BFC01EE5AFF4CE491F0E0EE0F47
:1057E000FF1FE25CFF4C259134913093C20220935D
:1057F000C102FC01EA59FF4CE491E093C702809199
:10580000BB02082E000C990BFC01EE5AFF4CE491F0
:10581000F0E0EE0FFF1FE25CFF4CA591B491B09356
:10582000C402A093C302FC01EA59FF4CE491E09347
:10583000C8028C91E82BEC938091AF029091B0025A
:10584000892B89F11FB7F89480916F02811124C0D0
:10585000ECE5F0E38491E0E7F0E39491E82FF0E0E9
:10586000EE0FFF1FE85BFF4CA591B491EC91E9238B
:1058700021F461E08AE00E94BB188AE00E946D1862
:105880008CB580618CBD8CB580648CBD8DE00E9430
:105890006D188BE00E946D1880916F028F5F80936E
:1058A0006F021FBFC5CE8091B8020E946D18809113
:1058B000B9020E946D188091B802082E000C990B55
:1058C000FC01EE5AFF4CE491F0E0EE0FFF1FE25CAA
:1058D000FF4C259134913093BE022093BD02FC0110
:1058E000EA59FF4CE491E093C5028091B902082E79
:1058F000000C990BFC01EE5AFF4CE491F0E0EE0F26
:10590000FF1FE25CFF4CA591B491B093C002A0933D
:10591000BF02FC01EA59FF4CE491E093C6028C916E
:10592000E095E823EC9384CE8091AF029091B00291
:10593000892B31F08091D2029091D3020E94BC1B3E
:10594000E091C302F091C40290818091C8028095D9
:1059500089238083ADCE8FE9E4CE8036910569F44A
:1059600080919A0290919B02409739F48091B602FF
:10597000813029F08FEA8093D10212E0D5CE80E108
:10598000FACFE091C302F091C40280819091C802E5
:10599000892B8083A9CD60E084E992E00E94E12513
:1059A0000E9462270E94B02486E4882E8E010F5F39
:1059B0001F4F90E0A92E90E0B92E23E0D22E99241B
:1059C00093942FB7F8948091760290917702A091EA
:1059D0007802B09179022FBF809380029093810268
:1059E000A0938202B093830240917C0250917D0289
:1059F00060917E0270917F02841B950BA60BB70B02
:105A0000843F9140A105B10508F4B4C00E9462270B
:105A100080927C0080917A00806480937A008091EB
:105A20007A0086FDFCCF8091780090917900909368
:105A30007B0280937A02D092A802D092A9021B8A9C
:105A40001A8A1D8A1C8A1F8A1E8A4AE0B8010E948F
:105A5000D02DF80101900020E9F73197AF01401BEC
:105A6000510BB801CE0142960E948C2760E0CE0116
:105A700042960E943A26CE0142960E948427909236
:105A8000A8029092A90280917A0290917B028732BB
:105A9000924060F46DE671E0C8010E94CB2766E099
:105AA000C8010E943A26C8010E94842780917A0288
:105AB00090917B02875292408436910560F461E8B0
:105AC00071E0C8010E94CB2766E0C8010E943A2617
:105AD000C8010E94842780917A0290917B028B58A2
